{
  "_format": "hh-sol-artifact-1",
  "contractName": "Buildspace",
  "sourceName": "contracts/Buildspace.sol",
  "abi": [
    {
      "inputs": [
        {
          "internalType": "string",
          "name": "_contractBaseURI",
          "type": "string"
        }
      ],
      "stateMutability": "nonpayable",
      "type": "constructor"
    },
    {
      "anonymous": false,
      "inputs": [
        {
          "indexed": true,
          "internalType": "address",
          "name": "owner",
          "type": "address"
        },
        {
          "indexed": true,
          "internalType": "address",
          "name": "approved",
          "type": "address"
        },
        {
          "indexed": true,
          "internalType": "uint256",
          "name": "tokenId",
          "type": "uint256"
        }
      ],
      "name": "Approval",
      "type": "event"
    },
    {
      "anonymous": false,
      "inputs": [
        {
          "indexed": true,
          "internalType": "address",
          "name": "owner",
          "type": "address"
        },
        {
          "indexed": true,
          "internalType": "address",
          "name": "operator",
          "type": "address"
        },
        {
          "indexed": false,
          "internalType": "bool",
          "name": "approved",
          "type": "bool"
        }
      ],
      "name": "ApprovalForAll",
      "type": "event"
    },
    {
      "anonymous": false,
      "inputs": [
        {
          "indexed": true,
          "internalType": "address",
          "name": "_receiver",
          "type": "address"
        },
        {
          "indexed": true,
          "internalType": "string",
          "name": "_cohortId",
          "type": "string"
        },
        {
          "indexed": false,
          "internalType": "uint128",
          "name": "_cohortIndex",
          "type": "uint128"
        },
        {
          "indexed": false,
          "internalType": "uint256",
          "name": "_contractIndex",
          "type": "uint256"
        },
        {
          "indexed": false,
          "internalType": "bool",
          "name": "_isAdmin",
          "type": "bool"
        }
      ],
      "name": "Claim",
      "type": "event"
    },
    {
      "anonymous": false,
      "inputs": [
        {
          "indexed": true,
          "internalType": "address",
          "name": "previousOwner",
          "type": "address"
        },
        {
          "indexed": true,
          "internalType": "address",
          "name": "newOwner",
          "type": "address"
        }
      ],
      "name": "OwnershipTransferred",
      "type": "event"
    },
    {
      "anonymous": false,
      "inputs": [
        {
          "indexed": true,
          "internalType": "address",
          "name": "from",
          "type": "address"
        },
        {
          "indexed": true,
          "internalType": "address",
          "name": "to",
          "type": "address"
        },
        {
          "indexed": true,
          "internalType": "uint256",
          "name": "tokenId",
          "type": "uint256"
        }
      ],
      "name": "Transfer",
      "type": "event"
    },
    {
      "inputs": [
        {
          "internalType": "string",
          "name": "_cohortId",
          "type": "string"
        },
        {
          "internalType": "bytes32[]",
          "name": "_proof",
          "type": "bytes32[]"
        },
        {
          "internalType": "address",
          "name": "to",
          "type": "address"
        }
      ],
      "name": "adminClaimToken",
      "outputs": [
        {
          "internalType": "uint256",
          "name": "",
          "type": "uint256"
        }
      ],
      "stateMutability": "nonpayable",
      "type": "function"
    },
    {
      "inputs": [
        {
          "internalType": "address",
          "name": "to",
          "type": "address"
        },
        {
          "internalType": "uint256",
          "name": "tokenId",
          "type": "uint256"
        }
      ],
      "name": "approve",
      "outputs": [],
      "stateMutability": "nonpayable",
      "type": "function"
    },
    {
      "inputs": [
        {
          "internalType": "address",
          "name": "owner",
          "type": "address"
        }
      ],
      "name": "balanceOf",
      "outputs": [
        {
          "internalType": "uint256",
          "name": "",
          "type": "uint256"
        }
      ],
      "stateMutability": "view",
      "type": "function"
    },
    {
      "inputs": [
        {
          "internalType": "string",
          "name": "_cohortId",
          "type": "string"
        },
        {
          "internalType": "bytes32[]",
          "name": "_proof",
          "type": "bytes32[]"
        }
      ],
      "name": "claimToken",
      "outputs": [
        {
          "internalType": "uint256",
          "name": "",
          "type": "uint256"
        }
      ],
      "stateMutability": "nonpayable",
      "type": "function"
    },
    {
      "inputs": [
        {
          "internalType": "address",
          "name": "",
          "type": "address"
        },
        {
          "internalType": "string",
          "name": "",
          "type": "string"
        }
      ],
      "name": "claimed",
      "outputs": [
        {
          "internalType": "uint256",
          "name": "",
          "type": "uint256"
        }
      ],
      "stateMutability": "view",
      "type": "function"
    },
    {
      "inputs": [
        {
          "internalType": "string",
          "name": "",
          "type": "string"
        }
      ],
      "name": "cohorts",
      "outputs": [
        {
          "internalType": "uint128",
          "name": "limit",
          "type": "uint128"
        },
        {
          "internalType": "uint128",
          "name": "tokenMinted",
          "type": "uint128"
        },
        {
          "internalType": "bytes32",
          "name": "merkleRoot",
          "type": "bytes32"
        }
      ],
      "stateMutability": "view",
      "type": "function"
    },
    {
      "inputs": [
        {
          "internalType": "string",
          "name": "_cohortId",
          "type": "string"
        },
        {
          "internalType": "uint128",
          "name": "_limit",
          "type": "uint128"
        },
        {
          "internalType": "bytes32",
          "name": "_merkleRoot",
          "type": "bytes32"
        }
      ],
      "name": "createCohort",
      "outputs": [],
      "stateMutability": "nonpayable",
      "type": "function"
    },
    {
      "inputs": [
        {
          "internalType": "uint256",
          "name": "tokenId",
          "type": "uint256"
        }
      ],
      "name": "getApproved",
      "outputs": [
        {
          "internalType": "address",
          "name": "",
          "type": "address"
        }
      ],
      "stateMutability": "view",
      "type": "function"
    },
    {
      "inputs": [
        {
          "internalType": "address",
          "name": "owner",
          "type": "address"
        },
        {
          "internalType": "address",
          "name": "operator",
          "type": "address"
        }
      ],
      "name": "isApprovedForAll",
      "outputs": [
        {
          "internalType": "bool",
          "name": "",
          "type": "bool"
        }
      ],
      "stateMutability": "view",
      "type": "function"
    },
    {
      "inputs": [],
      "name": "name",
      "outputs": [
        {
          "internalType": "string",
          "name": "",
          "type": "string"
        }
      ],
      "stateMutability": "view",
      "type": "function"
    },
    {
      "inputs": [],
      "name": "owner",
      "outputs": [
        {
          "internalType": "address",
          "name": "",
          "type": "address"
        }
      ],
      "stateMutability": "view",
      "type": "function"
    },
    {
      "inputs": [
        {
          "internalType": "uint256",
          "name": "tokenId",
          "type": "uint256"
        }
      ],
      "name": "ownerOf",
      "outputs": [
        {
          "internalType": "address",
          "name": "",
          "type": "address"
        }
      ],
      "stateMutability": "view",
      "type": "function"
    },
    {
      "inputs": [],
      "name": "renounceOwnership",
      "outputs": [],
      "stateMutability": "nonpayable",
      "type": "function"
    },
    {
      "inputs": [
        {
          "internalType": "address",
          "name": "from",
          "type": "address"
        },
        {
          "internalType": "address",
          "name": "to",
          "type": "address"
        },
        {
          "internalType": "uint256",
          "name": "tokenId",
          "type": "uint256"
        }
      ],
      "name": "safeTransferFrom",
      "outputs": [],
      "stateMutability": "nonpayable",
      "type": "function"
    },
    {
      "inputs": [
        {
          "internalType": "address",
          "name": "from",
          "type": "address"
        },
        {
          "internalType": "address",
          "name": "to",
          "type": "address"
        },
        {
          "internalType": "uint256",
          "name": "tokenId",
          "type": "uint256"
        },
        {
          "internalType": "bytes",
          "name": "_data",
          "type": "bytes"
        }
      ],
      "name": "safeTransferFrom",
      "outputs": [],
      "stateMutability": "nonpayable",
      "type": "function"
    },
    {
      "inputs": [
        {
          "internalType": "bool",
          "name": "_allowsTransfers",
          "type": "bool"
        }
      ],
      "name": "setAllowsTransfers",
      "outputs": [],
      "stateMutability": "nonpayable",
      "type": "function"
    },
    {
      "inputs": [
        {
          "internalType": "address",
          "name": "operator",
          "type": "address"
        },
        {
          "internalType": "bool",
          "name": "approved",
          "type": "bool"
        }
      ],
      "name": "setApprovalForAll",
      "outputs": [],
      "stateMutability": "nonpayable",
      "type": "function"
    },
    {
      "inputs": [
        {
          "internalType": "string",
          "name": "_cohortId",
          "type": "string"
        },
        {
          "internalType": "bytes32",
          "name": "_merkleRoot",
          "type": "bytes32"
        }
      ],
      "name": "setMerkleRoot",
      "outputs": [],
      "stateMutability": "nonpayable",
      "type": "function"
    },
    {
      "inputs": [
        {
          "internalType": "bytes4",
          "name": "interfaceId",
          "type": "bytes4"
        }
      ],
      "name": "supportsInterface",
      "outputs": [
        {
          "internalType": "bool",
          "name": "",
          "type": "bool"
        }
      ],
      "stateMutability": "view",
      "type": "function"
    },
    {
      "inputs": [],
      "name": "symbol",
      "outputs": [
        {
          "internalType": "string",
          "name": "",
          "type": "string"
        }
      ],
      "stateMutability": "view",
      "type": "function"
    },
    {
      "inputs": [
        {
          "internalType": "uint256",
          "name": "tokenId",
          "type": "uint256"
        }
      ],
      "name": "tokenURI",
      "outputs": [
        {
          "internalType": "string",
          "name": "",
          "type": "string"
        }
      ],
      "stateMutability": "view",
      "type": "function"
    },
    {
      "inputs": [
        {
          "internalType": "address",
          "name": "from",
          "type": "address"
        },
        {
          "internalType": "address",
          "name": "to",
          "type": "address"
        },
        {
          "internalType": "uint256",
          "name": "tokenId",
          "type": "uint256"
        }
      ],
      "name": "transferFrom",
      "outputs": [],
      "stateMutability": "nonpayable",
      "type": "function"
    },
    {
      "inputs": [
        {
          "internalType": "address",
          "name": "newOwner",
          "type": "address"
        }
      ],
      "name": "transferOwnership",
      "outputs": [],
      "stateMutability": "nonpayable",
      "type": "function"
    },
    {
      "inputs": [
        {
          "internalType": "address",
          "name": "_admin",
          "type": "address"
        },
        {
          "internalType": "bool",
          "name": "isAdmin",
          "type": "bool"
        }
      ],
      "name": "updateAdmin",
      "outputs": [],
      "stateMutability": "nonpayable",
      "type": "function"
    }
  ],
  "bytecode": "0x60806040526000600d60006101000a81548160ff0219169083151502179055503480156200002c57600080fd5b5060405162004dd038038062004dd083398181016040528101906200005291906200037a565b6040518060400160405280600a81526020017f6275696c647370616365000000000000000000000000000000000000000000008152506040518060400160405280600a81526020017f4255494c445350414345000000000000000000000000000000000000000000008152508160009080519060200190620000d692919062000258565b508060019080519060200190620000ef92919062000258565b50505062000112620001066200018a60201b60201c565b6200019260201b60201c565b6001600960003373ffffffffffffffffffffffffffffffffffffffff1673ffffffffffffffffffffffffffffffffffffffff16815260200190815260200160002060006101000a81548160ff02191690831515021790555080600c90805190602001906200018292919062000258565b5050620004f0565b600033905090565b6000600760009054906101000a900473ffffffffffffffffffffffffffffffffffffffff16905081600760006101000a81548173ffffffffffffffffffffffffffffffffffffffff021916908373ffffffffffffffffffffffffffffffffffffffff1602179055508173ffffffffffffffffffffffffffffffffffffffff168173ffffffffffffffffffffffffffffffffffffffff167f8be0079c531659141344cd1fd0a4f28419497f9722a3daafe3b4186f6b6457e060405160405180910390a35050565b82805462000266906200045c565b90600052602060002090601f0160209004810192826200028a5760008555620002d6565b82601f10620002a557805160ff1916838001178555620002d6565b82800160010185558215620002d6579182015b82811115620002d5578251825591602001919060010190620002b8565b5b509050620002e59190620002e9565b5090565b5b8082111562000304576000816000905550600101620002ea565b5090565b60006200031f6200031984620003f3565b620003bf565b9050828152602081018484840111156200033857600080fd5b6200034584828562000426565b509392505050565b600082601f8301126200035f57600080fd5b81516200037184826020860162000308565b91505092915050565b6000602082840312156200038d57600080fd5b600082015167ffffffffffffffff811115620003a857600080fd5b620003b6848285016200034d565b91505092915050565b6000604051905081810181811067ffffffffffffffff82111715620003e957620003e8620004c1565b5b8060405250919050565b600067ffffffffffffffff821115620004115762000410620004c1565b5b601f19601f8301169050602081019050919050565b60005b838110156200044657808201518184015260208101905062000429565b8381111562000456576000848401525b50505050565b600060028204905060018216806200047557607f821691505b602082108114156200048c576200048b62000492565b5b50919050565b7f4e487b7100000000000000000000000000000000000000000000000000000000600052602260045260246000fd5b7f4e487b7100000000000000000000000000000000000000000000000000000000600052604160045260246000fd5b6148d080620005006000396000f3fe608060405234801561001057600080fd5b50600436106101585760003560e01c80638da5cb5b116100c3578063c87b56dd1161007c578063c87b56dd146103c3578063dbc19102146103f3578063e4d515b414610423578063e985e9c514610453578063ec7981f014610483578063f2fde38b1461049f57610158565b80638da5cb5b146103015780638ffc391a1461031f57806395d89b4114610351578063a22cb4651461036f578063b7aafa871461038b578063b88d4fde146103a757610158565b806342842e0e1161011557806342842e0e146102435780635e51d31a1461025f5780636352211e1461027b578063670a6fd9146102ab57806370a08231146102c7578063715018a6146102f757610158565b806301ffc9a71461015d57806306fdde031461018d578063081812fc146101ab578063095ea7b3146101db57806323b872dd146101f7578063345d681814610213575b600080fd5b610177600480360381019061017291906130a1565b6104bb565b6040516101849190613ed4565b60405180910390f35b61019561059d565b6040516101a29190613eef565b60405180910390f35b6101c560048036038101906101c091906132da565b61062f565b6040516101d29190613e6d565b60405180910390f35b6101f560048036038101906101f0919061303c565b6106b4565b005b610211600480360381019061020c9190612ee2565b6107cc565b005b61022d60048036038101906102289190613134565b61082c565b60405161023a919061429f565b60405180910390f35b61025d60048036038101906102589190612ee2565b610976565b005b61027960048036038101906102749190613078565b610996565b005b610295600480360381019061029091906132da565b610a10565b6040516102a29190613e6d565b60405180910390f35b6102c560048036038101906102c09190612fac565b610ac2565b005b6102e160048036038101906102dc9190612e7d565b610b99565b6040516102ee919061429f565b60405180910390f35b6102ff610c51565b005b610309610cd9565b6040516103169190613e6d565b60405180910390f35b610339600480360381019061033491906130f3565b610d03565b60405161034893929190614231565b60405180910390f35b610359610d7b565b6040516103669190613eef565b60405180910390f35b61038960048036038101906103849190612fac565b610e0d565b005b6103a560048036038101906103a0919061321f565b610f8e565b005b6103c160048036038101906103bc9190612f31565b6110a7565b005b6103dd60048036038101906103d891906132da565b611109565b6040516103ea9190613eef565b60405180910390f35b61040d60048036038101906104089190612fe8565b61125b565b60405161041a919061429f565b60405180910390f35b61043d600480360381019061043891906131a0565b611296565b60405161044a919061429f565b60405180910390f35b61046d60048036038101906104689190612ea6565b6113a7565b60405161047a9190613ed4565b60405180910390f35b61049d60048036038101906104989190613273565b61143b565b005b6104b960048036038101906104b49190612e7d565b611673565b005b60007f80ac58cd000000000000000000000000000000000000000000000000000000007bffffffffffffffffffffffffffffffffffffffffffffffffffffffff1916827bffffffffffffffffffffffffffffffffffffffffffffffffffffffff1916148061058657507f5b5e139f000000000000000000000000000000000000000000000000000000007bffffffffffffffffffffffffffffffffffffffffffffffffffffffff1916827bffffffffffffffffffffffffffffffffffffffffffffffffffffffff1916145b8061059657506105958261176b565b5b9050919050565b6060600080546105ac906145f2565b80601f01602080910402602001604051908101604052809291908181526020018280546105d8906145f2565b80156106255780601f106105fa57610100808354040283529160200191610625565b820191906000526020600020905b81548152906001019060200180831161060857829003601f168201915b5050505050905090565b600061063a826117d5565b610679576040517f08c379a0000000000000000000000000000000000000000000000000000000008152600401610670906140f1565b60405180910390fd5b6004600083815260200190815260200160002060009054906101000a900473ffffffffffffffffffffffffffffffffffffffff169050919050565b60006106bf82610a10565b90508073ffffffffffffffffffffffffffffffffffffffff168373ffffffffffffffffffffffffffffffffffffffff161415610730576040517f08c379a000000000000000000000000000000000000000000000000000000000815260040161072790614171565b60405180910390fd5b8073ffffffffffffffffffffffffffffffffffffffff1661074f611841565b73ffffffffffffffffffffffffffffffffffffffff16148061077e575061077d81610778611841565b6113a7565b5b6107bd576040517f08c379a00000000000000000000000000000000000000000000000000000000081526004016107b490614011565b60405180910390fd5b6107c78383611849565b505050565b6107dd6107d7611841565b82611902565b61081c576040517f08c379a0000000000000000000000000000000000000000000000000000000008152600401610813906141b1565b60405180910390fd5b6108278383836119e0565b505050565b60008282336000816040516020016108449190613db1565b60405160208183030381529060405280519060200120905061088883600a866040516108709190613df8565b90815260200160405180910390206001015483611c3c565b6108c7576040517f08c379a00000000000000000000000000000000000000000000000000000000081526004016108be906141d1565b60405180910390fd5b6000336040516020016108da9190613db1565b60405160208183030381529060405280519060200120905061091e87600a8a6040516109069190613df8565b90815260200160405180910390206001015483611c3c565b61095d576040517f08c379a0000000000000000000000000000000000000000000000000000000008152600401610954906141d1565b60405180910390fd5b61096988336000611d18565b9550505050505092915050565b610991838383604051806020016040528060008152506110a7565b505050565b60011515600960003373ffffffffffffffffffffffffffffffffffffffff1673ffffffffffffffffffffffffffffffffffffffff16815260200190815260200160002060009054906101000a900460ff161515146109f357600080fd5b80600d60006101000a81548160ff02191690831515021790555050565b6000806002600084815260200190815260200160002060009054906101000a900473ffffffffffffffffffffffffffffffffffffffff169050600073ffffffffffffffffffffffffffffffffffffffff168173ffffffffffffffffffffffffffffffffffffffff161415610ab9576040517f08c379a0000000000000000000000000000000000000000000000000000000008152600401610ab090614051565b60405180910390fd5b80915050919050565b610aca611841565b73ffffffffffffffffffffffffffffffffffffffff16610ae8610cd9565b73ffffffffffffffffffffffffffffffffffffffff1614610b3e576040517f08c379a0000000000000000000000000000000000000000000000000000000008152600401610b3590614111565b60405180910390fd5b80600960008473ffffffffffffffffffffffffffffffffffffffff1673ffffffffffffffffffffffffffffffffffffffff16815260200190815260200160002060006101000a81548160ff0219169083151502179055505050565b60008073ffffffffffffffffffffffffffffffffffffffff168273ffffffffffffffffffffffffffffffffffffffff161415610c0a576040517f08c379a0000000000000000000000000000000000000000000000000000000008152600401610c0190614031565b60405180910390fd5b600360008373ffffffffffffffffffffffffffffffffffffffff1673ffffffffffffffffffffffffffffffffffffffff168152602001908152602001600020549050919050565b610c59611841565b73ffffffffffffffffffffffffffffffffffffffff16610c77610cd9565b73ffffffffffffffffffffffffffffffffffffffff1614610ccd576040517f08c379a0000000000000000000000000000000000000000000000000000000008152600401610cc490614111565b60405180910390fd5b610cd76000612071565b565b6000600760009054906101000a900473ffffffffffffffffffffffffffffffffffffffff16905090565b600a818051602081018201805184825260208301602085012081835280955050505050506000915090508060000160009054906101000a90046fffffffffffffffffffffffffffffffff16908060000160109054906101000a90046fffffffffffffffffffffffffffffffff16908060010154905083565b606060018054610d8a906145f2565b80601f0160208091040260200160405190810160405280929190818152602001828054610db6906145f2565b8015610e035780601f10610dd857610100808354040283529160200191610e03565b820191906000526020600020905b815481529060010190602001808311610de657829003601f168201915b5050505050905090565b610e15611841565b73ffffffffffffffffffffffffffffffffffffffff168273ffffffffffffffffffffffffffffffffffffffff161415610e83576040517f08c379a0000000000000000000000000000000000000000000000000000000008152600401610e7a90613f91565b60405180910390fd5b8060056000610e90611841565b73ffffffffffffffffffffffffffffffffffffffff1673ffffffffffffffffffffffffffffffffffffffff16815260200190815260200160002060008473ffffffffffffffffffffffffffffffffffffffff1673ffffffffffffffffffffffffffffffffffffffff16815260200190815260200160002060006101000a81548160ff0219169083151502179055508173ffffffffffffffffffffffffffffffffffffffff16610f3d611841565b73ffffffffffffffffffffffffffffffffffffffff167f17307eab39ab6107e8899845ad3d59bd9653f200f220920489ca2b5937696c3183604051610f829190613ed4565b60405180910390a35050565b60011515600960003373ffffffffffffffffffffffffffffffffffffffff1673ffffffffffffffffffffffffffffffffffffffff16815260200190815260200160002060009054906101000a900460ff16151514610feb57600080fd5b6000600a83604051610ffd9190613df8565b908152602001604051809103902060000160009054906101000a90046fffffffffffffffffffffffffffffffff166fffffffffffffffffffffffffffffffff161161107d576040517f08c379a0000000000000000000000000000000000000000000000000000000008152600401611074906140d1565b60405180910390fd5b80600a8360405161108e9190613df8565b9081526020016040518091039020600101819055505050565b6110b86110b2611841565b83611902565b6110f7576040517f08c379a00000000000000000000000000000000000000000000000000000000081526004016110ee906141b1565b60405180910390fd5b61110384848484612137565b50505050565b6060611114826117d5565b611153576040517f08c379a000000000000000000000000000000000000000000000000000000000815260040161114a906140b1565b60405180910390fd5b6000600660008481526020019081526020016000208054611173906145f2565b80601f016020809104026020016040519081016040528092919081815260200182805461119f906145f2565b80156111ec5780601f106111c1576101008083540402835291602001916111ec565b820191906000526020600020905b8154815290600101906020018083116111cf57829003601f168201915b5050505050905060006111fd612193565b9050600081511415611213578192505050611256565b600082511115611248578082604051602001611230929190613e0f565b60405160208183030381529060405292505050611256565b61125184612225565b925050505b919050565b600860205281600052604060002081805160208101820180518482526020830160208501208183528095505050505050600091509150505481565b600060011515600960003373ffffffffffffffffffffffffffffffffffffffff1673ffffffffffffffffffffffffffffffffffffffff16815260200190815260200160002060009054906101000a900460ff161515146112f557600080fd5b83838360008160405160200161130b9190613db1565b60405160208183030381529060405280519060200120905061134f83600a866040516113379190613df8565b90815260200160405180910390206001015483611c3c565b61138e576040517f08c379a0000000000000000000000000000000000000000000000000000000008152600401611385906141d1565b60405180910390fd5b61139a88876001611d18565b9450505050509392505050565b6000600560008473ffffffffffffffffffffffffffffffffffffffff1673ffffffffffffffffffffffffffffffffffffffff16815260200190815260200160002060008373ffffffffffffffffffffffffffffffffffffffff1673ffffffffffffffffffffffffffffffffffffffff16815260200190815260200160002060009054906101000a900460ff16905092915050565b60011515600960003373ffffffffffffffffffffffffffffffffffffffff1673ffffffffffffffffffffffffffffffffffffffff16815260200190815260200160002060009054906101000a900460ff1615151461149857600080fd5b6000600a846040516114aa9190613df8565b908152602001604051809103902060000160009054906101000a90046fffffffffffffffffffffffffffffffff166fffffffffffffffffffffffffffffffff161461152a576040517f08c379a000000000000000000000000000000000000000000000000000000000815260040161152190614211565b60405180910390fd5b6000826fffffffffffffffffffffffffffffffff161161157f576040517f08c379a0000000000000000000000000000000000000000000000000000000008152600401611576906141f1565b60405180910390fd5b60006040518060600160405280846fffffffffffffffffffffffffffffffff16815260200160006fffffffffffffffffffffffffffffffff16815260200183815250905080600a856040516115d49190613df8565b908152602001604051809103902060008201518160000160006101000a8154816fffffffffffffffffffffffffffffffff02191690836fffffffffffffffffffffffffffffffff16021790555060208201518160000160106101000a8154816fffffffffffffffffffffffffffffffff02191690836fffffffffffffffffffffffffffffffff1602179055506040820151816001015590505050505050565b61167b611841565b73ffffffffffffffffffffffffffffffffffffffff16611699610cd9565b73ffffffffffffffffffffffffffffffffffffffff16146116ef576040517f08c379a00000000000000000000000000000000000000000000000000000000081526004016116e690614111565b60405180910390fd5b600073ffffffffffffffffffffffffffffffffffffffff168173ffffffffffffffffffffffffffffffffffffffff16141561175f576040517f08c379a000000000000000000000000000000000000000000000000000000000815260040161175690613f31565b60405180910390fd5b61176881612071565b50565b60007f01ffc9a7000000000000000000000000000000000000000000000000000000007bffffffffffffffffffffffffffffffffffffffffffffffffffffffff1916827bffffffffffffffffffffffffffffffffffffffffffffffffffffffff1916149050919050565b60008073ffffffffffffffffffffffffffffffffffffffff166002600084815260200190815260200160002060009054906101000a900473ffffffffffffffffffffffffffffffffffffffff1673ffffffffffffffffffffffffffffffffffffffff1614159050919050565b600033905090565b816004600083815260200190815260200160002060006101000a81548173ffffffffffffffffffffffffffffffffffffffff021916908373ffffffffffffffffffffffffffffffffffffffff160217905550808273ffffffffffffffffffffffffffffffffffffffff166118bc83610a10565b73ffffffffffffffffffffffffffffffffffffffff167f8c5be1e5ebec7d5bd14f71427d1e84f3dd0314c0f7b2291e5b200ac8c7c3b92560405160405180910390a45050565b600061190d826117d5565b61194c576040517f08c379a000000000000000000000000000000000000000000000000000000000815260040161194390613fb1565b60405180910390fd5b600061195783610a10565b90508073ffffffffffffffffffffffffffffffffffffffff168473ffffffffffffffffffffffffffffffffffffffff1614806119c657508373ffffffffffffffffffffffffffffffffffffffff166119ae8461062f565b73ffffffffffffffffffffffffffffffffffffffff16145b806119d757506119d681856113a7565b5b91505092915050565b8273ffffffffffffffffffffffffffffffffffffffff16611a0082610a10565b73ffffffffffffffffffffffffffffffffffffffff1614611a56576040517f08c379a0000000000000000000000000000000000000000000000000000000008152600401611a4d90614131565b60405180910390fd5b600073ffffffffffffffffffffffffffffffffffffffff168273ffffffffffffffffffffffffffffffffffffffff161415611ac6576040517f08c379a0000000000000000000000000000000000000000000000000000000008152600401611abd90613f71565b60405180910390fd5b611ad18383836122cc565b611adc600082611849565b6001600360008573ffffffffffffffffffffffffffffffffffffffff1673ffffffffffffffffffffffffffffffffffffffff1681526020019081526020016000206000828254611b2c91906144b8565b925050819055506001600360008473ffffffffffffffffffffffffffffffffffffffff1673ffffffffffffffffffffffffffffffffffffffff1681526020019081526020016000206000828254611b839190614400565b92505081905550816002600083815260200190815260200160002060006101000a81548173ffffffffffffffffffffffffffffffffffffffff021916908373ffffffffffffffffffffffffffffffffffffffff160217905550808273ffffffffffffffffffffffffffffffffffffffff168473ffffffffffffffffffffffffffffffffffffffff167fddf252ad1be2c89b69c2b068fc378daa952ba7f163c4a11628f55a4df523b3ef60405160405180910390a4505050565b60008082905060005b8551811015611d0a576000868281518110611c89577f4e487b7100000000000000000000000000000000000000000000000000000000600052603260045260246000fd5b60200260200101519050808311611cca578281604051602001611cad929190613dcc565b604051602081830303815290604052805190602001209250611cf6565b8083604051602001611cdd929190613dcc565b6040516020818303038152906040528051906020012092505b508080611d029061465d565b915050611c45565b508381149150509392505050565b60008383600a82604051611d2c9190613df8565b908152602001604051809103902060000160009054906101000a90046fffffffffffffffffffffffffffffffff166fffffffffffffffffffffffffffffffff16600a83604051611d7c9190613df8565b908152602001604051809103902060000160109054906101000a90046fffffffffffffffffffffffffffffffff166fffffffffffffffffffffffffffffffff1610611dfc576040517f08c379a0000000000000000000000000000000000000000000000000000000008152600401611df390613ff1565b60405180910390fd5b6000600860008373ffffffffffffffffffffffffffffffffffffffff1673ffffffffffffffffffffffffffffffffffffffff16815260200190815260200160002083604051611e4b9190613df8565b90815260200160405180910390205414611e9a576040517f08c379a0000000000000000000000000000000000000000000000000000000008152600401611e9190613fd1565b60405180910390fd5b6000600a87604051611eac9190613df8565b908152602001604051809103902060000160109054906101000a90046fffffffffffffffffffffffffffffffff169050600087611ee883612399565b604051602001611ef9929190613e33565b60405160208183030381529060405290506000611f16600b6125a6565b905080600860008a73ffffffffffffffffffffffffffffffffffffffff1673ffffffffffffffffffffffffffffffffffffffff1681526020019081526020016000208a604051611f669190613df8565b908152602001604051809103902081905550611f8288826125b4565b88604051611f909190613df8565b60405180910390208873ffffffffffffffffffffffffffffffffffffffff167f436ed5ad57b88689854d2b756b16ffc1e461f71b9c88bc4316a6b58e9d7fc80985848b604051611fe293929190614268565b60405180910390a3611ff481836125d2565b60018361200191906143ba565b600a8a6040516120119190613df8565b908152602001604051809103902060000160106101000a8154816fffffffffffffffffffffffffffffffff02191690836fffffffffffffffffffffffffffffffff160217905550612062600b612646565b80955050505050509392505050565b6000600760009054906101000a900473ffffffffffffffffffffffffffffffffffffffff16905081600760006101000a81548173ffffffffffffffffffffffffffffffffffffffff021916908373ffffffffffffffffffffffffffffffffffffffff1602179055508173ffffffffffffffffffffffffffffffffffffffff168173ffffffffffffffffffffffffffffffffffffffff167f8be0079c531659141344cd1fd0a4f28419497f9722a3daafe3b4186f6b6457e060405160405180910390a35050565b6121428484846119e0565b61214e8484848461265c565b61218d576040517f08c379a000000000000000000000000000000000000000000000000000000000815260040161218490613f11565b60405180910390fd5b50505050565b6060600c80546121a2906145f2565b80601f01602080910402602001604051908101604052809291908181526020018280546121ce906145f2565b801561221b5780601f106121f05761010080835404028352916020019161221b565b820191906000526020600020905b8154815290600101906020018083116121fe57829003601f168201915b5050505050905090565b6060612230826117d5565b61226f576040517f08c379a000000000000000000000000000000000000000000000000000000000815260040161226690614151565b60405180910390fd5b6000612279612193565b9050600081511161229957604051806020016040528060008152506122c4565b806122a3846127f3565b6040516020016122b4929190613e0f565b6040516020818303038152906040525b915050919050565b600073ffffffffffffffffffffffffffffffffffffffff168373ffffffffffffffffffffffffffffffffffffffff1614806123335750600073ffffffffffffffffffffffffffffffffffffffff168273ffffffffffffffffffffffffffffffffffffffff16145b8061234a5750600d60009054906101000a900460ff165b612389576040517f08c379a000000000000000000000000000000000000000000000000000000000815260040161238090614191565b60405180910390fd5b6123948383836129a0565b505050565b60606000826fffffffffffffffffffffffffffffffff1614156123f3576040518060400160405280600181526020017f300000000000000000000000000000000000000000000000000000000000000081525090506125a1565b600082905060005b6000826fffffffffffffffffffffffffffffffff161461243757808061242090614624565b915050600a826124309190614456565b91506123fb565b6000816fffffffffffffffffffffffffffffffff1667ffffffffffffffff81111561248b577f4e487b7100000000000000000000000000000000000000000000000000000000600052604160045260246000fd5b6040519080825280601f01601f1916602001820160405280156124bd5781602001600182028036833780820191505090505b50905060008290508593505b6000846fffffffffffffffffffffffffffffffff161461259957600a846124f091906146d4565b60306124fc91906143ba565b60f81b828261250a906145c8565b9250826fffffffffffffffffffffffffffffffff1681518110612556577f4e487b7100000000000000000000000000000000000000000000000000000000600052603260045260246000fd5b60200101907effffffffffffffffffffffffffffffffffffffffffffffffffffffffffffff1916908160001a905350600a846125929190614456565b93506124c9565b819450505050505b919050565b600081600001549050919050565b6125ce8282604051806020016040528060008152506129a5565b5050565b6125db826117d5565b61261a576040517f08c379a000000000000000000000000000000000000000000000000000000000815260040161261190614071565b60405180910390fd5b80600660008481526020019081526020016000209080519060200190612641929190612be1565b505050565b6001816000016000828254019250508190555050565b600061267d8473ffffffffffffffffffffffffffffffffffffffff16612a00565b156127e6578373ffffffffffffffffffffffffffffffffffffffff1663150b7a026126a6611841565b8786866040518563ffffffff1660e01b81526004016126c89493929190613e88565b602060405180830381600087803b1580156126e257600080fd5b505af192505050801561271357506040513d601f19601f8201168201806040525081019061271091906130ca565b60015b612796573d8060008114612743576040519150601f19603f3d011682016040523d82523d6000602084013e612748565b606091505b5060008151141561278e576040517f08c379a000000000000000000000000000000000000000000000000000000000815260040161278590613f11565b60405180910390fd5b805181602001fd5b63150b7a0260e01b7bffffffffffffffffffffffffffffffffffffffffffffffffffffffff1916817bffffffffffffffffffffffffffffffffffffffffffffffffffffffff1916149150506127eb565b600190505b949350505050565b6060600082141561283b576040518060400160405280600181526020017f3000000000000000000000000000000000000000000000000000000000000000815250905061299b565b600082905060005b6000821461286d5780806128569061465d565b915050600a826128669190614487565b9150612843565b60008167ffffffffffffffff8111156128af577f4e487b7100000000000000000000000000000000000000000000000000000000600052604160045260246000fd5b6040519080825280601f01601f1916602001820160405280156128e15781602001600182028036833780820191505090505b5090505b60008514612994576001826128fa91906144b8565b9150600a856129099190614705565b60306129159190614400565b60f81b818381518110612951577f4e487b7100000000000000000000000000000000000000000000000000000000600052603260045260246000fd5b60200101907effffffffffffffffffffffffffffffffffffffffffffffffffffffffffffff1916908160001a905350600a8561298d9190614487565b94506128e5565b8093505050505b919050565b505050565b6129af8383612a13565b6129bc600084848461265c565b6129fb576040517f08c379a00000000000000000000000000000000000000000000000000000000081526004016129f290613f11565b60405180910390fd5b505050565b600080823b905060008111915050919050565b600073ffffffffffffffffffffffffffffffffffffffff168273ffffffffffffffffffffffffffffffffffffffff161415612a83576040517f08c379a0000000000000000000000000000000000000000000000000000000008152600401612a7a90614091565b60405180910390fd5b612a8c816117d5565b15612acc576040517f08c379a0000000000000000000000000000000000000000000000000000000008152600401612ac390613f51565b60405180910390fd5b612ad8600083836122cc565b6001600360008473ffffffffffffffffffffffffffffffffffffffff1673ffffffffffffffffffffffffffffffffffffffff1681526020019081526020016000206000828254612b289190614400565b92505081905550816002600083815260200190815260200160002060006101000a81548173ffffffffffffffffffffffffffffffffffffffff021916908373ffffffffffffffffffffffffffffffffffffffff160217905550808273ffffffffffffffffffffffffffffffffffffffff16600073ffffffffffffffffffffffffffffffffffffffff167fddf252ad1be2c89b69c2b068fc378daa952ba7f163c4a11628f55a4df523b3ef60405160405180910390a45050565b828054612bed906145f2565b90600052602060002090601f016020900481019282612c0f5760008555612c56565b82601f10612c2857805160ff1916838001178555612c56565b82800160010185558215612c56579182015b82811115612c55578251825591602001919060010190612c3a565b5b509050612c639190612c67565b5090565b5b80821115612c80576000816000905550600101612c68565b5090565b6000612c97612c92846142eb565b6142ba565b90508083825260208201905082856020860282011115612cb657600080fd5b60005b85811015612ce65781612ccc8882612dc0565b845260208401935060208301925050600181019050612cb9565b5050509392505050565b6000612d03612cfe84614317565b6142ba565b905082815260208101848484011115612d1b57600080fd5b612d26848285614586565b509392505050565b6000612d41612d3c84614347565b6142ba565b905082815260208101848484011115612d5957600080fd5b612d64848285614586565b509392505050565b600081359050612d7b81614810565b92915050565b600082601f830112612d9257600080fd5b8135612da2848260208601612c84565b91505092915050565b600081359050612dba81614827565b92915050565b600081359050612dcf8161483e565b92915050565b600081359050612de481614855565b92915050565b600081519050612df981614855565b92915050565b600082601f830112612e1057600080fd5b8135612e20848260208601612cf0565b91505092915050565b600082601f830112612e3a57600080fd5b8135612e4a848260208601612d2e565b91505092915050565b600081359050612e628161486c565b92915050565b600081359050612e7781614883565b92915050565b600060208284031215612e8f57600080fd5b6000612e9d84828501612d6c565b91505092915050565b60008060408385031215612eb957600080fd5b6000612ec785828601612d6c565b9250506020612ed885828601612d6c565b9150509250929050565b600080600060608486031215612ef757600080fd5b6000612f0586828701612d6c565b9350506020612f1686828701612d6c565b9250506040612f2786828701612e68565b9150509250925092565b60008060008060808587031215612f4757600080fd5b6000612f5587828801612d6c565b9450506020612f6687828801612d6c565b9350506040612f7787828801612e68565b925050606085013567ffffffffffffffff811115612f9457600080fd5b612fa087828801612dff565b91505092959194509250565b60008060408385031215612fbf57600080fd5b6000612fcd85828601612d6c565b9250506020612fde85828601612dab565b9150509250929050565b60008060408385031215612ffb57600080fd5b600061300985828601612d6c565b925050602083013567ffffffffffffffff81111561302657600080fd5b61303285828601612e29565b9150509250929050565b6000806040838503121561304f57600080fd5b600061305d85828601612d6c565b925050602061306e85828601612e68565b9150509250929050565b60006020828403121561308a57600080fd5b600061309884828501612dab565b91505092915050565b6000602082840312156130b357600080fd5b60006130c184828501612dd5565b91505092915050565b6000602082840312156130dc57600080fd5b60006130ea84828501612dea565b91505092915050565b60006020828403121561310557600080fd5b600082013567ffffffffffffffff81111561311f57600080fd5b61312b84828501612e29565b91505092915050565b6000806040838503121561314757600080fd5b600083013567ffffffffffffffff81111561316157600080fd5b61316d85828601612e29565b925050602083013567ffffffffffffffff81111561318a57600080fd5b61319685828601612d81565b9150509250929050565b6000806000606084860312156131b557600080fd5b600084013567ffffffffffffffff8111156131cf57600080fd5b6131db86828701612e29565b935050602084013567ffffffffffffffff8111156131f857600080fd5b61320486828701612d81565b925050604061321586828701612d6c565b9150509250925092565b6000806040838503121561323257600080fd5b600083013567ffffffffffffffff81111561324c57600080fd5b61325885828601612e29565b925050602061326985828601612dc0565b9150509250929050565b60008060006060848603121561328857600080fd5b600084013567ffffffffffffffff8111156132a257600080fd5b6132ae86828701612e29565b93505060206132bf86828701612e53565b92505060406132d086828701612dc0565b9150509250925092565b6000602082840312156132ec57600080fd5b60006132fa84828501612e68565b91505092915050565b61330c816144ec565b82525050565b61332361331e826144ec565b6146a6565b82525050565b613332816144fe565b82525050565b6133418161450a565b82525050565b6133586133538261450a565b6146b8565b82525050565b600061336982614377565b613373818561438d565b9350613383818560208601614595565b61338c816147f2565b840191505092915050565b60006133a282614382565b6133ac818561439e565b93506133bc818560208601614595565b6133c5816147f2565b840191505092915050565b60006133db82614382565b6133e581856143af565b93506133f5818560208601614595565b80840191505092915050565b600061340e60328361439e565b91507f4552433732313a207472616e7366657220746f206e6f6e20455243373231526560008301527f63656976657220696d706c656d656e74657200000000000000000000000000006020830152604082019050919050565b600061347460268361439e565b91507f4f776e61626c653a206e6577206f776e657220697320746865207a65726f206160008301527f64647265737300000000000000000000000000000000000000000000000000006020830152604082019050919050565b60006134da601c8361439e565b91507f4552433732313a20746f6b656e20616c7265616479206d696e746564000000006000830152602082019050919050565b600061351a600e836143af565b91507f2f6d657461646174612e6a736f6e0000000000000000000000000000000000006000830152600e82019050919050565b600061355a60248361439e565b91507f4552433732313a207472616e7366657220746f20746865207a65726f2061646460008301527f72657373000000000000000000000000000000000000000000000000000000006020830152604082019050919050565b60006135c060198361439e565b91507f4552433732313a20617070726f766520746f2063616c6c6572000000000000006000830152602082019050919050565b6000613600602c8361439e565b91507f4552433732313a206f70657261746f7220717565727920666f72206e6f6e657860008301527f697374656e7420746f6b656e00000000000000000000000000000000000000006020830152604082019050919050565b6000613666602e8361439e565b91507f4275696c6473706163653a20616464726573732068617320616c72656164792060008301527f636c61696d656420746f6b656e2e0000000000000000000000000000000000006020830152604082019050919050565b60006136cc60288361439e565b91507f4275696c6473706163653a206d617820746f6b656e732069737375656420666f60008301527f7220636f686f72740000000000000000000000000000000000000000000000006020830152604082019050919050565b600061373260388361439e565b91507f4552433732313a20617070726f76652063616c6c6572206973206e6f74206f7760008301527f6e6572206e6f7220617070726f76656420666f7220616c6c00000000000000006020830152604082019050919050565b6000613798602a8361439e565b91507f4552433732313a2062616c616e636520717565727920666f7220746865207a6560008301527f726f2061646472657373000000000000000000000000000000000000000000006020830152604082019050919050565b60006137fe60298361439e565b91507f4552433732313a206f776e657220717565727920666f72206e6f6e657869737460008301527f656e7420746f6b656e00000000000000000000000000000000000000000000006020830152604082019050919050565b6000613864602e8361439e565b91507f45524337323155524953746f726167653a2055524920736574206f66206e6f6e60008301527f6578697374656e7420746f6b656e0000000000000000000000000000000000006020830152604082019050919050565b60006138ca60208361439e565b91507f4552433732313a206d696e7420746f20746865207a65726f20616464726573736000830152602082019050919050565b600061390a60318361439e565b91507f45524337323155524953746f726167653a2055524920717565727920666f722060008301527f6e6f6e6578697374656e7420746f6b656e0000000000000000000000000000006020830152604082019050919050565b6000613970601f8361439e565b91507f4275696c6473706163653a204e6f20636f686f7274206c696d697420736574006000830152602082019050919050565b60006139b0602c8361439e565b91507f4552433732313a20617070726f76656420717565727920666f72206e6f6e657860008301527f697374656e7420746f6b656e00000000000000000000000000000000000000006020830152604082019050919050565b6000613a1660208361439e565b91507f4f776e61626c653a2063616c6c6572206973206e6f7420746865206f776e65726000830152602082019050919050565b6000613a5660298361439e565b91507f4552433732313a207472616e73666572206f6620746f6b656e2074686174206960008301527f73206e6f74206f776e00000000000000000000000000000000000000000000006020830152604082019050919050565b6000613abc602f8361439e565b91507f4552433732314d657461646174613a2055524920717565727920666f72206e6f60008301527f6e6578697374656e7420746f6b656e00000000000000000000000000000000006020830152604082019050919050565b6000613b2260218361439e565b91507f4552433732313a20617070726f76616c20746f2063757272656e74206f776e6560008301527f72000000000000000000000000000000000000000000000000000000000000006020830152604082019050919050565b6000613b8860178361439e565b91507f4e6f7420616c6c6f77656420746f207472616e736665720000000000000000006000830152602082019050919050565b6000613bc860318361439e565b91507f4552433732313a207472616e736665722063616c6c6572206973206e6f74206f60008301527f776e6572206e6f7220617070726f7665640000000000000000000000000000006020830152604082019050919050565b6000613c2e602a8361439e565b91507f4275696c6473706163653a2061646472657373206e6f7420656c696769626c6560008301527f20666f7220636c61696d000000000000000000000000000000000000000000006020830152604082019050919050565b6000613c946001836143af565b91507f2d000000000000000000000000000000000000000000000000000000000000006000830152600182019050919050565b6000613cd460288361439e565b91507f4275696c6473706163653a204c696d6974206d7573742062652067726561746560008301527f72207468616e20300000000000000000000000000000000000000000000000006020830152604082019050919050565b6000613d3a60218361439e565b91507f4275696c6473706163653a20436f686f727420616c726561647920657869737460008301527f73000000000000000000000000000000000000000000000000000000000000006020830152604082019050919050565b613d9c81614540565b82525050565b613dab8161457c565b82525050565b6000613dbd8284613312565b60148201915081905092915050565b6000613dd88285613347565b602082019150613de88284613347565b6020820191508190509392505050565b6000613e0482846133d0565b915081905092915050565b6000613e1b82856133d0565b9150613e2782846133d0565b91508190509392505050565b6000613e3f82856133d0565b9150613e4a82613c87565b9150613e5682846133d0565b9150613e618261350d565b91508190509392505050565b6000602082019050613e826000830184613303565b92915050565b6000608082019050613e9d6000830187613303565b613eaa6020830186613303565b613eb76040830185613da2565b8181036060830152613ec9818461335e565b905095945050505050565b6000602082019050613ee96000830184613329565b92915050565b60006020820190508181036000830152613f098184613397565b905092915050565b60006020820190508181036000830152613f2a81613401565b9050919050565b60006020820190508181036000830152613f4a81613467565b9050919050565b60006020820190508181036000830152613f6a816134cd565b9050919050565b60006020820190508181036000830152613f8a8161354d565b9050919050565b60006020820190508181036000830152613faa816135b3565b9050919050565b60006020820190508181036000830152613fca816135f3565b9050919050565b60006020820190508181036000830152613fea81613659565b9050919050565b6000602082019050818103600083015261400a816136bf565b9050919050565b6000602082019050818103600083015261402a81613725565b9050919050565b6000602082019050818103600083015261404a8161378b565b9050919050565b6000602082019050818103600083015261406a816137f1565b9050919050565b6000602082019050818103600083015261408a81613857565b9050919050565b600060208201905081810360008301526140aa816138bd565b9050919050565b600060208201905081810360008301526140ca816138fd565b9050919050565b600060208201905081810360008301526140ea81613963565b9050919050565b6000602082019050818103600083015261410a816139a3565b9050919050565b6000602082019050818103600083015261412a81613a09565b9050919050565b6000602082019050818103600083015261414a81613a49565b9050919050565b6000602082019050818103600083015261416a81613aaf565b9050919050565b6000602082019050818103600083015261418a81613b15565b9050919050565b600060208201905081810360008301526141aa81613b7b565b9050919050565b600060208201905081810360008301526141ca81613bbb565b9050919050565b600060208201905081810360008301526141ea81613c21565b9050919050565b6000602082019050818103600083015261420a81613cc7565b9050919050565b6000602082019050818103600083015261422a81613d2d565b9050919050565b60006060820190506142466000830186613d93565b6142536020830185613d93565b6142606040830184613338565b949350505050565b600060608201905061427d6000830186613d93565b61428a6020830185613da2565b6142976040830184613329565b949350505050565b60006020820190506142b46000830184613da2565b92915050565b6000604051905081810181811067ffffffffffffffff821117156142e1576142e06147c3565b5b8060405250919050565b600067ffffffffffffffff821115614306576143056147c3565b5b602082029050602081019050919050565b600067ffffffffffffffff821115614332576143316147c3565b5b601f19601f8301169050602081019050919050565b600067ffffffffffffffff821115614362576143616147c3565b5b601f19601f8301169050602081019050919050565b600081519050919050565b600081519050919050565b600082825260208201905092915050565b600082825260208201905092915050565b600081905092915050565b60006143c582614540565b91506143d083614540565b9250826fffffffffffffffffffffffffffffffff038211156143f5576143f4614736565b5b828201905092915050565b600061440b8261457c565b91506144168361457c565b9250827fffffffffffffffffffffffffffffffffffffffffffffffffffffffffffffffff0382111561444b5761444a614736565b5b828201905092915050565b600061446182614540565b915061446c83614540565b92508261447c5761447b614765565b5b828204905092915050565b60006144928261457c565b915061449d8361457c565b9250826144ad576144ac614765565b5b828204905092915050565b60006144c38261457c565b91506144ce8361457c565b9250828210156144e1576144e0614736565b5b828203905092915050565b60006144f78261455c565b9050919050565b60008115159050919050565b6000819050919050565b60007fffffffff0000000000000000000000000000000000000000000000000000000082169050919050565b60006fffffffffffffffffffffffffffffffff82169050919050565b600073ffffffffffffffffffffffffffffffffffffffff82169050919050565b6000819050919050565b82818337600083830152505050565b60005b838110156145b3578082015181840152602081019050614598565b838111156145c2576000848401525b50505050565b60006145d382614540565b915060008214156145e7576145e6614736565b5b600182039050919050565b6000600282049050600182168061460a57607f821691505b6020821081141561461e5761461d614794565b5b50919050565b600061462f82614540565b91506fffffffffffffffffffffffffffffffff82141561465257614651614736565b5b600182019050919050565b60006146688261457c565b91507fffffffffffffffffffffffffffffffffffffffffffffffffffffffffffffffff82141561469b5761469a614736565b5b600182019050919050565b60006146b1826146c2565b9050919050565b6000819050919050565b60006146cd82614803565b9050919050565b60006146df82614540565b91506146ea83614540565b9250826146fa576146f9614765565b5b828206905092915050565b60006147108261457c565b915061471b8361457c565b92508261472b5761472a614765565b5b828206905092915050565b7f4e487b7100000000000000000000000000000000000000000000000000000000600052601160045260246000fd5b7f4e487b7100000000000000000000000000000000000000000000000000000000600052601260045260246000fd5b7f4e487b7100000000000000000000000000000000000000000000000000000000600052602260045260246000fd5b7f4e487b7100000000000000000000000000000000000000000000000000000000600052604160045260246000fd5b6000601f19601f8301169050919050565b60008160601b9050919050565b614819816144ec565b811461482457600080fd5b50565b614830816144fe565b811461483b57600080fd5b50565b6148478161450a565b811461485257600080fd5b50565b61485e81614514565b811461486957600080fd5b50565b61487581614540565b811461488057600080fd5b50565b61488c8161457c565b811461489757600080fd5b5056fea2646970667358221220e0e680fc9442099acb80939c0bb45a0ccc0ed5d292b375ea6e96e07e7a2a4fb364736f6c63430008000033",
  "linkReferences": {},
  "deployedLinkReferences": {}
}