{
  "_format": "hh-sol-artifact-1",
  "contractName": "Buildspace",
  "sourceName": "contracts/Buildspace.sol",
  "abi": [
    {
      "inputs": [
        {
          "internalType": "string",
          "name": "_contractBaseURI",
          "type": "string"
        }
      ],
      "stateMutability": "nonpayable",
      "type": "constructor"
    },
    {
      "anonymous": false,
      "inputs": [
        {
          "indexed": true,
          "internalType": "address",
          "name": "owner",
          "type": "address"
        },
        {
          "indexed": true,
          "internalType": "address",
          "name": "approved",
          "type": "address"
        },
        {
          "indexed": true,
          "internalType": "uint256",
          "name": "tokenId",
          "type": "uint256"
        }
      ],
      "name": "Approval",
      "type": "event"
    },
    {
      "anonymous": false,
      "inputs": [
        {
          "indexed": true,
          "internalType": "address",
          "name": "owner",
          "type": "address"
        },
        {
          "indexed": true,
          "internalType": "address",
          "name": "operator",
          "type": "address"
        },
        {
          "indexed": false,
          "internalType": "bool",
          "name": "approved",
          "type": "bool"
        }
      ],
      "name": "ApprovalForAll",
      "type": "event"
    },
    {
      "anonymous": false,
      "inputs": [
        {
          "indexed": true,
          "internalType": "address",
          "name": "_receiver",
          "type": "address"
        },
        {
          "indexed": true,
          "internalType": "string",
          "name": "_cohortId",
          "type": "string"
        },
        {
          "indexed": false,
          "internalType": "uint256",
          "name": "_cohortIndex",
          "type": "uint256"
        },
        {
          "indexed": false,
          "internalType": "uint256",
          "name": "_contractIndex",
          "type": "uint256"
        },
        {
          "indexed": false,
          "internalType": "bool",
          "name": "_isAdmin",
          "type": "bool"
        }
      ],
      "name": "Claim",
      "type": "event"
    },
    {
      "anonymous": false,
      "inputs": [
        {
          "indexed": true,
          "internalType": "address",
          "name": "previousOwner",
          "type": "address"
        },
        {
          "indexed": true,
          "internalType": "address",
          "name": "newOwner",
          "type": "address"
        }
      ],
      "name": "OwnershipTransferred",
      "type": "event"
    },
    {
      "anonymous": false,
      "inputs": [
        {
          "indexed": true,
          "internalType": "address",
          "name": "from",
          "type": "address"
        },
        {
          "indexed": true,
          "internalType": "address",
          "name": "to",
          "type": "address"
        },
        {
          "indexed": true,
          "internalType": "uint256",
          "name": "tokenId",
          "type": "uint256"
        }
      ],
      "name": "Transfer",
      "type": "event"
    },
    {
      "inputs": [
        {
          "internalType": "string",
          "name": "_cohortId",
          "type": "string"
        },
        {
          "internalType": "address",
          "name": "to",
          "type": "address"
        }
      ],
      "name": "adminClaimToken",
      "outputs": [
        {
          "internalType": "uint256",
          "name": "",
          "type": "uint256"
        }
      ],
      "stateMutability": "nonpayable",
      "type": "function"
    },
    {
      "inputs": [
        {
          "internalType": "address",
          "name": "to",
          "type": "address"
        },
        {
          "internalType": "uint256",
          "name": "tokenId",
          "type": "uint256"
        }
      ],
      "name": "approve",
      "outputs": [],
      "stateMutability": "nonpayable",
      "type": "function"
    },
    {
      "inputs": [
        {
          "internalType": "address",
          "name": "owner",
          "type": "address"
        }
      ],
      "name": "balanceOf",
      "outputs": [
        {
          "internalType": "uint256",
          "name": "",
          "type": "uint256"
        }
      ],
      "stateMutability": "view",
      "type": "function"
    },
    {
      "inputs": [
        {
          "internalType": "string",
          "name": "_cohortId",
          "type": "string"
        },
        {
          "internalType": "bytes32[]",
          "name": "_proof",
          "type": "bytes32[]"
        }
      ],
      "name": "claimToken",
      "outputs": [
        {
          "internalType": "uint256",
          "name": "",
          "type": "uint256"
        }
      ],
      "stateMutability": "nonpayable",
      "type": "function"
    },
    {
      "inputs": [
        {
          "internalType": "address",
          "name": "",
          "type": "address"
        },
        {
          "internalType": "string",
          "name": "",
          "type": "string"
        }
      ],
      "name": "claimed",
      "outputs": [
        {
          "internalType": "bool",
          "name": "",
          "type": "bool"
        }
      ],
      "stateMutability": "view",
      "type": "function"
    },
    {
      "inputs": [
        {
          "internalType": "string",
          "name": "",
          "type": "string"
        }
      ],
      "name": "cohorts",
      "outputs": [
        {
          "internalType": "uint128",
          "name": "limit",
          "type": "uint128"
        },
        {
          "internalType": "uint128",
          "name": "tokenMinted",
          "type": "uint128"
        },
        {
          "internalType": "bytes32",
          "name": "merkleRoot",
          "type": "bytes32"
        }
      ],
      "stateMutability": "view",
      "type": "function"
    },
    {
      "inputs": [
        {
          "internalType": "string",
          "name": "_cohortId",
          "type": "string"
        },
        {
          "internalType": "uint128",
          "name": "_limit",
          "type": "uint128"
        },
        {
          "internalType": "bytes32",
          "name": "_merkleRoot",
          "type": "bytes32"
        }
      ],
      "name": "createCohort",
      "outputs": [],
      "stateMutability": "nonpayable",
      "type": "function"
    },
    {
      "inputs": [
        {
          "internalType": "uint256",
          "name": "tokenId",
          "type": "uint256"
        }
      ],
      "name": "getApproved",
      "outputs": [
        {
          "internalType": "address",
          "name": "",
          "type": "address"
        }
      ],
      "stateMutability": "view",
      "type": "function"
    },
    {
      "inputs": [
        {
          "internalType": "address",
          "name": "owner",
          "type": "address"
        },
        {
          "internalType": "address",
          "name": "operator",
          "type": "address"
        }
      ],
      "name": "isApprovedForAll",
      "outputs": [
        {
          "internalType": "bool",
          "name": "",
          "type": "bool"
        }
      ],
      "stateMutability": "view",
      "type": "function"
    },
    {
      "inputs": [
        {
          "internalType": "string",
          "name": "_cohortId",
          "type": "string"
        }
      ],
      "name": "limitForCohort",
      "outputs": [
        {
          "internalType": "uint128",
          "name": "",
          "type": "uint128"
        }
      ],
      "stateMutability": "view",
      "type": "function"
    },
    {
      "inputs": [
        {
          "internalType": "string",
          "name": "_cohortId",
          "type": "string"
        }
      ],
      "name": "merkleRootForCohort",
      "outputs": [
        {
          "internalType": "bytes32",
          "name": "",
          "type": "bytes32"
        }
      ],
      "stateMutability": "view",
      "type": "function"
    },
    {
      "inputs": [],
      "name": "name",
      "outputs": [
        {
          "internalType": "string",
          "name": "",
          "type": "string"
        }
      ],
      "stateMutability": "view",
      "type": "function"
    },
    {
      "inputs": [],
      "name": "owner",
      "outputs": [
        {
          "internalType": "address",
          "name": "",
          "type": "address"
        }
      ],
      "stateMutability": "view",
      "type": "function"
    },
    {
      "inputs": [
        {
          "internalType": "uint256",
          "name": "tokenId",
          "type": "uint256"
        }
      ],
      "name": "ownerOf",
      "outputs": [
        {
          "internalType": "address",
          "name": "",
          "type": "address"
        }
      ],
      "stateMutability": "view",
      "type": "function"
    },
    {
      "inputs": [],
      "name": "renounceOwnership",
      "outputs": [],
      "stateMutability": "nonpayable",
      "type": "function"
    },
    {
      "inputs": [
        {
          "internalType": "address",
          "name": "from",
          "type": "address"
        },
        {
          "internalType": "address",
          "name": "to",
          "type": "address"
        },
        {
          "internalType": "uint256",
          "name": "tokenId",
          "type": "uint256"
        }
      ],
      "name": "safeTransferFrom",
      "outputs": [],
      "stateMutability": "nonpayable",
      "type": "function"
    },
    {
      "inputs": [
        {
          "internalType": "address",
          "name": "from",
          "type": "address"
        },
        {
          "internalType": "address",
          "name": "to",
          "type": "address"
        },
        {
          "internalType": "uint256",
          "name": "tokenId",
          "type": "uint256"
        },
        {
          "internalType": "bytes",
          "name": "_data",
          "type": "bytes"
        }
      ],
      "name": "safeTransferFrom",
      "outputs": [],
      "stateMutability": "nonpayable",
      "type": "function"
    },
    {
      "inputs": [
        {
          "internalType": "bool",
          "name": "_allowsTransfers",
          "type": "bool"
        }
      ],
      "name": "setAllowsTransfers",
      "outputs": [],
      "stateMutability": "nonpayable",
      "type": "function"
    },
    {
      "inputs": [
        {
          "internalType": "address",
          "name": "operator",
          "type": "address"
        },
        {
          "internalType": "bool",
          "name": "approved",
          "type": "bool"
        }
      ],
      "name": "setApprovalForAll",
      "outputs": [],
      "stateMutability": "nonpayable",
      "type": "function"
    },
    {
      "inputs": [
        {
          "internalType": "string",
          "name": "_cohortId",
          "type": "string"
        },
        {
          "internalType": "bytes32",
          "name": "_merkleRoot",
          "type": "bytes32"
        }
      ],
      "name": "setMerkleRoot",
      "outputs": [],
      "stateMutability": "nonpayable",
      "type": "function"
    },
    {
      "inputs": [
        {
          "internalType": "bytes4",
          "name": "interfaceId",
          "type": "bytes4"
        }
      ],
      "name": "supportsInterface",
      "outputs": [
        {
          "internalType": "bool",
          "name": "",
          "type": "bool"
        }
      ],
      "stateMutability": "view",
      "type": "function"
    },
    {
      "inputs": [],
      "name": "symbol",
      "outputs": [
        {
          "internalType": "string",
          "name": "",
          "type": "string"
        }
      ],
      "stateMutability": "view",
      "type": "function"
    },
    {
      "inputs": [
        {
          "internalType": "uint256",
          "name": "tokenId",
          "type": "uint256"
        }
      ],
      "name": "tokenURI",
      "outputs": [
        {
          "internalType": "string",
          "name": "",
          "type": "string"
        }
      ],
      "stateMutability": "view",
      "type": "function"
    },
    {
      "inputs": [
        {
          "internalType": "string",
          "name": "_cohortId",
          "type": "string"
        }
      ],
      "name": "tokensClaimedForCohort",
      "outputs": [
        {
          "internalType": "uint128",
          "name": "",
          "type": "uint128"
        }
      ],
      "stateMutability": "view",
      "type": "function"
    },
    {
      "inputs": [
        {
          "internalType": "address",
          "name": "from",
          "type": "address"
        },
        {
          "internalType": "address",
          "name": "to",
          "type": "address"
        },
        {
          "internalType": "uint256",
          "name": "tokenId",
          "type": "uint256"
        }
      ],
      "name": "transferFrom",
      "outputs": [],
      "stateMutability": "nonpayable",
      "type": "function"
    },
    {
      "inputs": [
        {
          "internalType": "address",
          "name": "newOwner",
          "type": "address"
        }
      ],
      "name": "transferOwnership",
      "outputs": [],
      "stateMutability": "nonpayable",
      "type": "function"
    },
    {
      "inputs": [
        {
          "internalType": "address",
          "name": "_admin",
          "type": "address"
        },
        {
          "internalType": "bool",
          "name": "isAdmin",
          "type": "bool"
        }
      ],
      "name": "updateAdmin",
      "outputs": [],
      "stateMutability": "nonpayable",
      "type": "function"
    }
  ],
  "bytecode": "0x60806040526000600d60006101000a81548160ff0219169083151502179055503480156200002c57600080fd5b5060405162004dfd38038062004dfd83398181016040528101906200005291906200037a565b6040518060400160405280600a81526020017f6275696c647370616365000000000000000000000000000000000000000000008152506040518060400160405280600a81526020017f4255494c445350414345000000000000000000000000000000000000000000008152508160009080519060200190620000d692919062000258565b508060019080519060200190620000ef92919062000258565b50505062000112620001066200018a60201b60201c565b6200019260201b60201c565b6001600960003373ffffffffffffffffffffffffffffffffffffffff1673ffffffffffffffffffffffffffffffffffffffff16815260200190815260200160002060006101000a81548160ff02191690831515021790555080600c90805190602001906200018292919062000258565b5050620004f0565b600033905090565b6000600760009054906101000a900473ffffffffffffffffffffffffffffffffffffffff16905081600760006101000a81548173ffffffffffffffffffffffffffffffffffffffff021916908373ffffffffffffffffffffffffffffffffffffffff1602179055508173ffffffffffffffffffffffffffffffffffffffff168173ffffffffffffffffffffffffffffffffffffffff167f8be0079c531659141344cd1fd0a4f28419497f9722a3daafe3b4186f6b6457e060405160405180910390a35050565b82805462000266906200045c565b90600052602060002090601f0160209004810192826200028a5760008555620002d6565b82601f10620002a557805160ff1916838001178555620002d6565b82800160010185558215620002d6579182015b82811115620002d5578251825591602001919060010190620002b8565b5b509050620002e59190620002e9565b5090565b5b8082111562000304576000816000905550600101620002ea565b5090565b60006200031f6200031984620003f3565b620003bf565b9050828152602081018484840111156200033857600080fd5b6200034584828562000426565b509392505050565b600082601f8301126200035f57600080fd5b81516200037184826020860162000308565b91505092915050565b6000602082840312156200038d57600080fd5b600082015167ffffffffffffffff811115620003a857600080fd5b620003b6848285016200034d565b91505092915050565b6000604051905081810181811067ffffffffffffffff82111715620003e957620003e8620004c1565b5b8060405250919050565b600067ffffffffffffffff821115620004115762000410620004c1565b5b601f19601f8301169050602081019050919050565b60005b838110156200044657808201518184015260208101905062000429565b8381111562000456576000848401525b50505050565b600060028204905060018216806200047557607f821691505b602082108114156200048c576200048b62000492565b5b50919050565b7f4e487b7100000000000000000000000000000000000000000000000000000000600052602260045260246000fd5b7f4e487b7100000000000000000000000000000000000000000000000000000000600052604160045260246000fd5b6148fd80620005006000396000f3fe608060405234801561001057600080fd5b50600436106101a95760003560e01c8063715018a6116100f9578063b88d4fde11610097578063dbc1910211610071578063dbc1910214610504578063e985e9c514610534578063ec7981f014610564578063f2fde38b14610580576101a9565b8063b88d4fde14610488578063c87b56dd146104a4578063ca702899146104d4576101a9565b80638ffc391a116100d35780638ffc391a1461040057806395d89b4114610432578063a22cb46514610450578063b7aafa871461046c576101a9565b8063715018a6146103a85780638b4579bf146103b25780638da5cb5b146103e2576101a9565b806323b872dd116101665780635e51d31a116101405780635e51d31a146103105780636352211e1461032c578063670a6fd91461035c57806370a0823114610378576101a9565b806323b872dd146102a8578063345d6818146102c457806342842e0e146102f4576101a9565b806301ffc9a7146101ae57806306fdde03146101de578063081812fc146101fc578063095ea7b31461022c578063163cf2e3146102485780631a5ec30f14610278575b600080fd5b6101c860048036038101906101c3919061313d565b61059c565b6040516101d59190613f54565b60405180910390f35b6101e661067e565b6040516101f39190613f8a565b60405180910390f35b6102166004803603810190610211919061334b565b610710565b6040516102239190613eed565b60405180910390f35b610246600480360381019061024191906130d8565b610795565b005b610262600480360381019061025d91906131d0565b6108ad565b60405161026f9190614355565b60405180910390f35b610292600480360381019061028d919061318f565b610920565b60405161029f9190613f6f565b60405180910390f35b6102c260048036038101906102bd9190612f7e565b6109a8565b005b6102de60048036038101906102d99190613224565b610a08565b6040516102eb9190614355565b60405180910390f35b61030e60048036038101906103099190612f7e565b610ab4565b005b61032a60048036038101906103259190613114565b610ad4565b005b6103466004803603810190610341919061334b565b610b4e565b6040516103539190613eed565b60405180910390f35b61037660048036038101906103719190613048565b610c00565b005b610392600480360381019061038d9190612f19565b610cd7565b60405161039f9190614355565b60405180910390f35b6103b0610d8f565b005b6103cc60048036038101906103c7919061318f565b610e17565b6040516103d991906142cc565b60405180910390f35b6103ea610e5e565b6040516103f79190613eed565b60405180910390f35b61041a6004803603810190610415919061318f565b610e88565b604051610429939291906142e7565b60405180910390f35b61043a610f00565b6040516104479190613f8a565b60405180910390f35b61046a60048036038101906104659190613048565b610f92565b005b61048660048036038101906104819190613290565b611113565b005b6104a2600480360381019061049d9190612fcd565b61122c565b005b6104be60048036038101906104b9919061334b565b61128e565b6040516104cb9190613f8a565b60405180910390f35b6104ee60048036038101906104e9919061318f565b6113e0565b6040516104fb91906142cc565b60405180910390f35b61051e60048036038101906105199190613084565b611427565b60405161052b9190613f54565b60405180910390f35b61054e60048036038101906105499190612f42565b61146c565b60405161055b9190613f54565b60405180910390f35b61057e600480360381019061057991906132e4565b611500565b005b61059a60048036038101906105959190612f19565b611738565b005b60007f80ac58cd000000000000000000000000000000000000000000000000000000007bffffffffffffffffffffffffffffffffffffffffffffffffffffffff1916827bffffffffffffffffffffffffffffffffffffffffffffffffffffffff1916148061066757507f5b5e139f000000000000000000000000000000000000000000000000000000007bffffffffffffffffffffffffffffffffffffffffffffffffffffffff1916827bffffffffffffffffffffffffffffffffffffffffffffffffffffffff1916145b80610677575061067682611830565b5b9050919050565b60606000805461068d90614689565b80601f01602080910402602001604051908101604052809291908181526020018280546106b990614689565b80156107065780601f106106db57610100808354040283529160200191610706565b820191906000526020600020905b8154815290600101906020018083116106e957829003601f168201915b5050505050905090565b600061071b8261189a565b61075a576040517f08c379a00000000000000000000000000000000000000000000000000000000081526004016107519061418c565b60405180910390fd5b6004600083815260200190815260200160002060009054906101000a900473ffffffffffffffffffffffffffffffffffffffff169050919050565b60006107a082610b4e565b90508073ffffffffffffffffffffffffffffffffffffffff168373ffffffffffffffffffffffffffffffffffffffff161415610811576040517f08c379a00000000000000000000000000000000000000000000000000000000081526004016108089061420c565b60405180910390fd5b8073ffffffffffffffffffffffffffffffffffffffff16610830611906565b73ffffffffffffffffffffffffffffffffffffffff16148061085f575061085e81610859611906565b61146c565b5b61089e576040517f08c379a0000000000000000000000000000000000000000000000000000000008152600401610895906140ac565b60405180910390fd5b6108a8838361190e565b505050565b600060011515600960003373ffffffffffffffffffffffffffffffffffffffff1673ffffffffffffffffffffffffffffffffffffffff16815260200190815260200160002060009054906101000a900460ff1615151461090c57600080fd5b610918838360016119c7565b905092915050565b600060011515600960003373ffffffffffffffffffffffffffffffffffffffff1673ffffffffffffffffffffffffffffffffffffffff16815260200190815260200160002060009054906101000a900460ff1615151461097f57600080fd5b600a8260405161098f9190613e78565b9081526020016040518091039020600101549050919050565b6109b96109b3611906565b82611d51565b6109f8576040517f08c379a00000000000000000000000000000000000000000000000000000000081526004016109ef9061424c565b60405180910390fd5b610a03838383611e2f565b505050565b60008033604051602001610a1c9190613e31565b604051602081830303815290604052805190602001209050610a6083600a86604051610a489190613e78565b9081526020016040518091039020600101548361208b565b610a9f576040517f08c379a0000000000000000000000000000000000000000000000000000000008152600401610a969061426c565b60405180910390fd5b610aab843360006119c7565b91505092915050565b610acf8383836040518060200160405280600081525061122c565b505050565b60011515600960003373ffffffffffffffffffffffffffffffffffffffff1673ffffffffffffffffffffffffffffffffffffffff16815260200190815260200160002060009054906101000a900460ff16151514610b3157600080fd5b80600d60006101000a81548160ff02191690831515021790555050565b6000806002600084815260200190815260200160002060009054906101000a900473ffffffffffffffffffffffffffffffffffffffff169050600073ffffffffffffffffffffffffffffffffffffffff168173ffffffffffffffffffffffffffffffffffffffff161415610bf7576040517f08c379a0000000000000000000000000000000000000000000000000000000008152600401610bee906140ec565b60405180910390fd5b80915050919050565b610c08611906565b73ffffffffffffffffffffffffffffffffffffffff16610c26610e5e565b73ffffffffffffffffffffffffffffffffffffffff1614610c7c576040517f08c379a0000000000000000000000000000000000000000000000000000000008152600401610c73906141ac565b60405180910390fd5b80600960008473ffffffffffffffffffffffffffffffffffffffff1673ffffffffffffffffffffffffffffffffffffffff16815260200190815260200160002060006101000a81548160ff0219169083151502179055505050565b60008073ffffffffffffffffffffffffffffffffffffffff168273ffffffffffffffffffffffffffffffffffffffff161415610d48576040517f08c379a0000000000000000000000000000000000000000000000000000000008152600401610d3f906140cc565b60405180910390fd5b600360008373ffffffffffffffffffffffffffffffffffffffff1673ffffffffffffffffffffffffffffffffffffffff168152602001908152602001600020549050919050565b610d97611906565b73ffffffffffffffffffffffffffffffffffffffff16610db5610e5e565b73ffffffffffffffffffffffffffffffffffffffff1614610e0b576040517f08c379a0000000000000000000000000000000000000000000000000000000008152600401610e02906141ac565b60405180910390fd5b610e156000612167565b565b6000600a82604051610e299190613e78565b908152602001604051809103902060000160109054906101000a90046fffffffffffffffffffffffffffffffff169050919050565b6000600760009054906101000a900473ffffffffffffffffffffffffffffffffffffffff16905090565b600a818051602081018201805184825260208301602085012081835280955050505050506000915090508060000160009054906101000a90046fffffffffffffffffffffffffffffffff16908060000160109054906101000a90046fffffffffffffffffffffffffffffffff16908060010154905083565b606060018054610f0f90614689565b80601f0160208091040260200160405190810160405280929190818152602001828054610f3b90614689565b8015610f885780601f10610f5d57610100808354040283529160200191610f88565b820191906000526020600020905b815481529060010190602001808311610f6b57829003601f168201915b5050505050905090565b610f9a611906565b73ffffffffffffffffffffffffffffffffffffffff168273ffffffffffffffffffffffffffffffffffffffff161415611008576040517f08c379a0000000000000000000000000000000000000000000000000000000008152600401610fff9061402c565b60405180910390fd5b8060056000611015611906565b73ffffffffffffffffffffffffffffffffffffffff1673ffffffffffffffffffffffffffffffffffffffff16815260200190815260200160002060008473ffffffffffffffffffffffffffffffffffffffff1673ffffffffffffffffffffffffffffffffffffffff16815260200190815260200160002060006101000a81548160ff0219169083151502179055508173ffffffffffffffffffffffffffffffffffffffff166110c2611906565b73ffffffffffffffffffffffffffffffffffffffff167f17307eab39ab6107e8899845ad3d59bd9653f200f220920489ca2b5937696c31836040516111079190613f54565b60405180910390a35050565b60011515600960003373ffffffffffffffffffffffffffffffffffffffff1673ffffffffffffffffffffffffffffffffffffffff16815260200190815260200160002060009054906101000a900460ff1615151461117057600080fd5b6000600a836040516111829190613e78565b908152602001604051809103902060000160009054906101000a90046fffffffffffffffffffffffffffffffff166fffffffffffffffffffffffffffffffff1611611202576040517f08c379a00000000000000000000000000000000000000000000000000000000081526004016111f99061416c565b60405180910390fd5b80600a836040516112139190613e78565b9081526020016040518091039020600101819055505050565b61123d611237611906565b83611d51565b61127c576040517f08c379a00000000000000000000000000000000000000000000000000000000081526004016112739061424c565b60405180910390fd5b6112888484848461222d565b50505050565b60606112998261189a565b6112d8576040517f08c379a00000000000000000000000000000000000000000000000000000000081526004016112cf9061414c565b60405180910390fd5b60006006600084815260200190815260200160002080546112f890614689565b80601f016020809104026020016040519081016040528092919081815260200182805461132490614689565b80156113715780601f1061134657610100808354040283529160200191611371565b820191906000526020600020905b81548152906001019060200180831161135457829003601f168201915b505050505090506000611382612289565b90506000815114156113985781925050506113db565b6000825111156113cd5780826040516020016113b5929190613e8f565b604051602081830303815290604052925050506113db565b6113d68461231b565b925050505b919050565b6000600a826040516113f29190613e78565b908152602001604051809103902060000160009054906101000a90046fffffffffffffffffffffffffffffffff169050919050565b6008602052816000526040600020818051602081018201805184825260208301602085012081835280955050505050506000915091509054906101000a900460ff1681565b6000600560008473ffffffffffffffffffffffffffffffffffffffff1673ffffffffffffffffffffffffffffffffffffffff16815260200190815260200160002060008373ffffffffffffffffffffffffffffffffffffffff1673ffffffffffffffffffffffffffffffffffffffff16815260200190815260200160002060009054906101000a900460ff16905092915050565b60011515600960003373ffffffffffffffffffffffffffffffffffffffff1673ffffffffffffffffffffffffffffffffffffffff16815260200190815260200160002060009054906101000a900460ff1615151461155d57600080fd5b6000600a8460405161156f9190613e78565b908152602001604051809103902060000160009054906101000a90046fffffffffffffffffffffffffffffffff166fffffffffffffffffffffffffffffffff16146115ef576040517f08c379a00000000000000000000000000000000000000000000000000000000081526004016115e6906142ac565b60405180910390fd5b6000826fffffffffffffffffffffffffffffffff1611611644576040517f08c379a000000000000000000000000000000000000000000000000000000000815260040161163b9061428c565b60405180910390fd5b60006040518060600160405280846fffffffffffffffffffffffffffffffff16815260200160006fffffffffffffffffffffffffffffffff16815260200183815250905080600a856040516116999190613e78565b908152602001604051809103902060008201518160000160006101000a8154816fffffffffffffffffffffffffffffffff02191690836fffffffffffffffffffffffffffffffff16021790555060208201518160000160106101000a8154816fffffffffffffffffffffffffffffffff02191690836fffffffffffffffffffffffffffffffff1602179055506040820151816001015590505050505050565b611740611906565b73ffffffffffffffffffffffffffffffffffffffff1661175e610e5e565b73ffffffffffffffffffffffffffffffffffffffff16146117b4576040517f08c379a00000000000000000000000000000000000000000000000000000000081526004016117ab906141ac565b60405180910390fd5b600073ffffffffffffffffffffffffffffffffffffffff168173ffffffffffffffffffffffffffffffffffffffff161415611824576040517f08c379a000000000000000000000000000000000000000000000000000000000815260040161181b90613fcc565b60405180910390fd5b61182d81612167565b50565b60007f01ffc9a7000000000000000000000000000000000000000000000000000000007bffffffffffffffffffffffffffffffffffffffffffffffffffffffff1916827bffffffffffffffffffffffffffffffffffffffffffffffffffffffff1916149050919050565b60008073ffffffffffffffffffffffffffffffffffffffff166002600084815260200190815260200160002060009054906101000a900473ffffffffffffffffffffffffffffffffffffffff1673ffffffffffffffffffffffffffffffffffffffff1614159050919050565b600033905090565b816004600083815260200190815260200160002060006101000a81548173ffffffffffffffffffffffffffffffffffffffff021916908373ffffffffffffffffffffffffffffffffffffffff160217905550808273ffffffffffffffffffffffffffffffffffffffff1661198183610b4e565b73ffffffffffffffffffffffffffffffffffffffff167f8c5be1e5ebec7d5bd14f71427d1e84f3dd0314c0f7b2291e5b200ac8c7c3b92560405160405180910390a45050565b60008383600a826040516119db9190613e78565b908152602001604051809103902060000160009054906101000a90046fffffffffffffffffffffffffffffffff166fffffffffffffffffffffffffffffffff16600a83604051611a2b9190613e78565b908152602001604051809103902060000160109054906101000a90046fffffffffffffffffffffffffffffffff166fffffffffffffffffffffffffffffffff1610611aab576040517f08c379a0000000000000000000000000000000000000000000000000000000008152600401611aa29061408c565b60405180910390fd5b600860008273ffffffffffffffffffffffffffffffffffffffff1673ffffffffffffffffffffffffffffffffffffffff16815260200190815260200160002082604051611af89190613e78565b908152602001604051809103902060009054906101000a900460ff1615611b54576040517f08c379a0000000000000000000000000000000000000000000000000000000008152600401611b4b9061406c565b60405180910390fd5b6000600a87604051611b669190613e78565b908152602001604051809103902060000160109054906101000a90046fffffffffffffffffffffffffffffffff169050600087611bb4836fffffffffffffffffffffffffffffffff166123c2565b604051602001611bc5929190613eb3565b60405160208183030381529060405290506001600860008973ffffffffffffffffffffffffffffffffffffffff1673ffffffffffffffffffffffffffffffffffffffff16815260200190815260200160002089604051611c259190613e78565b908152602001604051809103902060006101000a81548160ff0219169083151502179055506000611c56600b612575565b9050611c628882612583565b88604051611c709190613e78565b60405180910390208873ffffffffffffffffffffffffffffffffffffffff167f54f1fcc7abca6cedb6f671f32124fdb7e22d954e8e32d245d3c9e08212c0c27685848b604051611cc29392919061431e565b60405180910390a3611cd481836125a1565b600183611ce19190614470565b600a8a604051611cf19190613e78565b908152602001604051809103902060000160106101000a8154816fffffffffffffffffffffffffffffffff02191690836fffffffffffffffffffffffffffffffff160217905550611d42600b612615565b80955050505050509392505050565b6000611d5c8261189a565b611d9b576040517f08c379a0000000000000000000000000000000000000000000000000000000008152600401611d929061404c565b60405180910390fd5b6000611da683610b4e565b90508073ffffffffffffffffffffffffffffffffffffffff168473ffffffffffffffffffffffffffffffffffffffff161480611e1557508373ffffffffffffffffffffffffffffffffffffffff16611dfd84610710565b73ffffffffffffffffffffffffffffffffffffffff16145b80611e265750611e25818561146c565b5b91505092915050565b8273ffffffffffffffffffffffffffffffffffffffff16611e4f82610b4e565b73ffffffffffffffffffffffffffffffffffffffff1614611ea5576040517f08c379a0000000000000000000000000000000000000000000000000000000008152600401611e9c906141cc565b60405180910390fd5b600073ffffffffffffffffffffffffffffffffffffffff168273ffffffffffffffffffffffffffffffffffffffff161415611f15576040517f08c379a0000000000000000000000000000000000000000000000000000000008152600401611f0c9061400c565b60405180910390fd5b611f2083838361262b565b611f2b60008261190e565b6001600360008573ffffffffffffffffffffffffffffffffffffffff1673ffffffffffffffffffffffffffffffffffffffff1681526020019081526020016000206000828254611f7b919061453d565b925050819055506001600360008473ffffffffffffffffffffffffffffffffffffffff1673ffffffffffffffffffffffffffffffffffffffff1681526020019081526020016000206000828254611fd291906144b6565b92505081905550816002600083815260200190815260200160002060006101000a81548173ffffffffffffffffffffffffffffffffffffffff021916908373ffffffffffffffffffffffffffffffffffffffff160217905550808273ffffffffffffffffffffffffffffffffffffffff168473ffffffffffffffffffffffffffffffffffffffff167fddf252ad1be2c89b69c2b068fc378daa952ba7f163c4a11628f55a4df523b3ef60405160405180910390a4505050565b60008082905060005b85518110156121595760008682815181106120d8577f4e487b7100000000000000000000000000000000000000000000000000000000600052603260045260246000fd5b602002602001015190508083116121195782816040516020016120fc929190613e4c565b604051602081830303815290604052805190602001209250612145565b808360405160200161212c929190613e4c565b6040516020818303038152906040528051906020012092505b508080612151906146bb565b915050612094565b508381149150509392505050565b6000600760009054906101000a900473ffffffffffffffffffffffffffffffffffffffff16905081600760006101000a81548173ffffffffffffffffffffffffffffffffffffffff021916908373ffffffffffffffffffffffffffffffffffffffff1602179055508173ffffffffffffffffffffffffffffffffffffffff168173ffffffffffffffffffffffffffffffffffffffff167f8be0079c531659141344cd1fd0a4f28419497f9722a3daafe3b4186f6b6457e060405160405180910390a35050565b612238848484611e2f565b612244848484846126f8565b612283576040517f08c379a000000000000000000000000000000000000000000000000000000000815260040161227a90613fac565b60405180910390fd5b50505050565b6060600c805461229890614689565b80601f01602080910402602001604051908101604052809291908181526020018280546122c490614689565b80156123115780601f106122e657610100808354040283529160200191612311565b820191906000526020600020905b8154815290600101906020018083116122f457829003601f168201915b5050505050905090565b60606123268261189a565b612365576040517f08c379a000000000000000000000000000000000000000000000000000000000815260040161235c906141ec565b60405180910390fd5b600061236f612289565b9050600081511161238f57604051806020016040528060008152506123ba565b806123998461288f565b6040516020016123aa929190613e8f565b6040516020818303038152906040525b915050919050565b6060600082141561240a576040518060400160405280600181526020017f30000000000000000000000000000000000000000000000000000000000000008152509050612570565b600082905060005b6000821461243c578080612425906146bb565b915050600a82612435919061450c565b9150612412565b60008167ffffffffffffffff81111561247e577f4e487b7100000000000000000000000000000000000000000000000000000000600052604160045260246000fd5b6040519080825280601f01601f1916602001820160405280156124b05781602001600182028036833780820191505090505b50905060008290508593505b6000841461256857600a846124d19190614732565b60306124dd91906144b6565b60f81b82826124eb9061465f565b92508281518110612525577f4e487b7100000000000000000000000000000000000000000000000000000000600052603260045260246000fd5b60200101907effffffffffffffffffffffffffffffffffffffffffffffffffffffffffffff1916908160001a905350600a84612561919061450c565b93506124bc565b819450505050505b919050565b600081600001549050919050565b61259d828260405180602001604052806000815250612a3c565b5050565b6125aa8261189a565b6125e9576040517f08c379a00000000000000000000000000000000000000000000000000000000081526004016125e09061410c565b60405180910390fd5b80600660008481526020019081526020016000209080519060200190612610929190612c7d565b505050565b6001816000016000828254019250508190555050565b600073ffffffffffffffffffffffffffffffffffffffff168373ffffffffffffffffffffffffffffffffffffffff1614806126925750600073ffffffffffffffffffffffffffffffffffffffff168273ffffffffffffffffffffffffffffffffffffffff16145b806126a95750600d60009054906101000a900460ff165b6126e8576040517f08c379a00000000000000000000000000000000000000000000000000000000081526004016126df9061422c565b60405180910390fd5b6126f3838383612a97565b505050565b60006127198473ffffffffffffffffffffffffffffffffffffffff16612a9c565b15612882578373ffffffffffffffffffffffffffffffffffffffff1663150b7a02612742611906565b8786866040518563ffffffff1660e01b81526004016127649493929190613f08565b602060405180830381600087803b15801561277e57600080fd5b505af19250505080156127af57506040513d601f19601f820116820180604052508101906127ac9190613166565b60015b612832573d80600081146127df576040519150601f19603f3d011682016040523d82523d6000602084013e6127e4565b606091505b5060008151141561282a576040517f08c379a000000000000000000000000000000000000000000000000000000000815260040161282190613fac565b60405180910390fd5b805181602001fd5b63150b7a0260e01b7bffffffffffffffffffffffffffffffffffffffffffffffffffffffff1916817bffffffffffffffffffffffffffffffffffffffffffffffffffffffff191614915050612887565b600190505b949350505050565b606060008214156128d7576040518060400160405280600181526020017f30000000000000000000000000000000000000000000000000000000000000008152509050612a37565b600082905060005b600082146129095780806128f2906146bb565b915050600a82612902919061450c565b91506128df565b60008167ffffffffffffffff81111561294b577f4e487b7100000000000000000000000000000000000000000000000000000000600052604160045260246000fd5b6040519080825280601f01601f19166020018201604052801561297d5781602001600182028036833780820191505090505b5090505b60008514612a3057600182612996919061453d565b9150600a856129a59190614732565b60306129b191906144b6565b60f81b8183815181106129ed577f4e487b7100000000000000000000000000000000000000000000000000000000600052603260045260246000fd5b60200101907effffffffffffffffffffffffffffffffffffffffffffffffffffffffffffff1916908160001a905350600a85612a29919061450c565b9450612981565b8093505050505b919050565b612a468383612aaf565b612a5360008484846126f8565b612a92576040517f08c379a0000000000000000000000000000000000000000000000000000000008152600401612a8990613fac565b60405180910390fd5b505050565b505050565b600080823b905060008111915050919050565b600073ffffffffffffffffffffffffffffffffffffffff168273ffffffffffffffffffffffffffffffffffffffff161415612b1f576040517f08c379a0000000000000000000000000000000000000000000000000000000008152600401612b169061412c565b60405180910390fd5b612b288161189a565b15612b68576040517f08c379a0000000000000000000000000000000000000000000000000000000008152600401612b5f90613fec565b60405180910390fd5b612b746000838361262b565b6001600360008473ffffffffffffffffffffffffffffffffffffffff1673ffffffffffffffffffffffffffffffffffffffff1681526020019081526020016000206000828254612bc491906144b6565b92505081905550816002600083815260200190815260200160002060006101000a81548173ffffffffffffffffffffffffffffffffffffffff021916908373ffffffffffffffffffffffffffffffffffffffff160217905550808273ffffffffffffffffffffffffffffffffffffffff16600073ffffffffffffffffffffffffffffffffffffffff167fddf252ad1be2c89b69c2b068fc378daa952ba7f163c4a11628f55a4df523b3ef60405160405180910390a45050565b828054612c8990614689565b90600052602060002090601f016020900481019282612cab5760008555612cf2565b82601f10612cc457805160ff1916838001178555612cf2565b82800160010185558215612cf2579182015b82811115612cf1578251825591602001919060010190612cd6565b5b509050612cff9190612d03565b5090565b5b80821115612d1c576000816000905550600101612d04565b5090565b6000612d33612d2e846143a1565b614370565b90508083825260208201905082856020860282011115612d5257600080fd5b60005b85811015612d825781612d688882612e5c565b845260208401935060208301925050600181019050612d55565b5050509392505050565b6000612d9f612d9a846143cd565b614370565b905082815260208101848484011115612db757600080fd5b612dc284828561461d565b509392505050565b6000612ddd612dd8846143fd565b614370565b905082815260208101848484011115612df557600080fd5b612e0084828561461d565b509392505050565b600081359050612e178161483d565b92915050565b600082601f830112612e2e57600080fd5b8135612e3e848260208601612d20565b91505092915050565b600081359050612e5681614854565b92915050565b600081359050612e6b8161486b565b92915050565b600081359050612e8081614882565b92915050565b600081519050612e9581614882565b92915050565b600082601f830112612eac57600080fd5b8135612ebc848260208601612d8c565b91505092915050565b600082601f830112612ed657600080fd5b8135612ee6848260208601612dca565b91505092915050565b600081359050612efe81614899565b92915050565b600081359050612f13816148b0565b92915050565b600060208284031215612f2b57600080fd5b6000612f3984828501612e08565b91505092915050565b60008060408385031215612f5557600080fd5b6000612f6385828601612e08565b9250506020612f7485828601612e08565b9150509250929050565b600080600060608486031215612f9357600080fd5b6000612fa186828701612e08565b9350506020612fb286828701612e08565b9250506040612fc386828701612f04565b9150509250925092565b60008060008060808587031215612fe357600080fd5b6000612ff187828801612e08565b945050602061300287828801612e08565b935050604061301387828801612f04565b925050606085013567ffffffffffffffff81111561303057600080fd5b61303c87828801612e9b565b91505092959194509250565b6000806040838503121561305b57600080fd5b600061306985828601612e08565b925050602061307a85828601612e47565b9150509250929050565b6000806040838503121561309757600080fd5b60006130a585828601612e08565b925050602083013567ffffffffffffffff8111156130c257600080fd5b6130ce85828601612ec5565b9150509250929050565b600080604083850312156130eb57600080fd5b60006130f985828601612e08565b925050602061310a85828601612f04565b9150509250929050565b60006020828403121561312657600080fd5b600061313484828501612e47565b91505092915050565b60006020828403121561314f57600080fd5b600061315d84828501612e71565b91505092915050565b60006020828403121561317857600080fd5b600061318684828501612e86565b91505092915050565b6000602082840312156131a157600080fd5b600082013567ffffffffffffffff8111156131bb57600080fd5b6131c784828501612ec5565b91505092915050565b600080604083850312156131e357600080fd5b600083013567ffffffffffffffff8111156131fd57600080fd5b61320985828601612ec5565b925050602061321a85828601612e08565b9150509250929050565b6000806040838503121561323757600080fd5b600083013567ffffffffffffffff81111561325157600080fd5b61325d85828601612ec5565b925050602083013567ffffffffffffffff81111561327a57600080fd5b61328685828601612e1d565b9150509250929050565b600080604083850312156132a357600080fd5b600083013567ffffffffffffffff8111156132bd57600080fd5b6132c985828601612ec5565b92505060206132da85828601612e5c565b9150509250929050565b6000806000606084860312156132f957600080fd5b600084013567ffffffffffffffff81111561331357600080fd5b61331f86828701612ec5565b935050602061333086828701612eef565b925050604061334186828701612e5c565b9150509250925092565b60006020828403121561335d57600080fd5b600061336b84828501612f04565b91505092915050565b61337d81614571565b82525050565b61339461338f82614571565b614704565b82525050565b6133a381614583565b82525050565b6133b28161458f565b82525050565b6133c96133c48261458f565b614716565b82525050565b60006133da8261442d565b6133e48185614443565b93506133f481856020860161462c565b6133fd8161481f565b840191505092915050565b600061341382614438565b61341d8185614454565b935061342d81856020860161462c565b6134368161481f565b840191505092915050565b600061344c82614438565b6134568185614465565b935061346681856020860161462c565b80840191505092915050565b600061347f603283614454565b91507f4552433732313a207472616e7366657220746f206e6f6e20455243373231526560008301527f63656976657220696d706c656d656e74657200000000000000000000000000006020830152604082019050919050565b60006134e5602683614454565b91507f4f776e61626c653a206e6577206f776e657220697320746865207a65726f206160008301527f64647265737300000000000000000000000000000000000000000000000000006020830152604082019050919050565b600061354b601c83614454565b91507f4552433732313a20746f6b656e20616c7265616479206d696e746564000000006000830152602082019050919050565b600061358b600e83614465565b91507f2f6d657461646174612e6a736f6e0000000000000000000000000000000000006000830152600e82019050919050565b60006135cb602483614454565b91507f4552433732313a207472616e7366657220746f20746865207a65726f2061646460008301527f72657373000000000000000000000000000000000000000000000000000000006020830152604082019050919050565b6000613631601983614454565b91507f4552433732313a20617070726f766520746f2063616c6c6572000000000000006000830152602082019050919050565b6000613671602c83614454565b91507f4552433732313a206f70657261746f7220717565727920666f72206e6f6e657860008301527f697374656e7420746f6b656e00000000000000000000000000000000000000006020830152604082019050919050565b60006136d7602e83614454565b91507f4275696c6473706163653a20616464726573732068617320616c72656164792060008301527f636c61696d656420746f6b656e2e0000000000000000000000000000000000006020830152604082019050919050565b600061373d602883614454565b91507f4275696c6473706163653a206d617820746f6b656e732069737375656420666f60008301527f7220636f686f72740000000000000000000000000000000000000000000000006020830152604082019050919050565b60006137a3603883614454565b91507f4552433732313a20617070726f76652063616c6c6572206973206e6f74206f7760008301527f6e6572206e6f7220617070726f76656420666f7220616c6c00000000000000006020830152604082019050919050565b6000613809602a83614454565b91507f4552433732313a2062616c616e636520717565727920666f7220746865207a6560008301527f726f2061646472657373000000000000000000000000000000000000000000006020830152604082019050919050565b600061386f602983614454565b91507f4552433732313a206f776e657220717565727920666f72206e6f6e657869737460008301527f656e7420746f6b656e00000000000000000000000000000000000000000000006020830152604082019050919050565b60006138d5602e83614454565b91507f45524337323155524953746f726167653a2055524920736574206f66206e6f6e60008301527f6578697374656e7420746f6b656e0000000000000000000000000000000000006020830152604082019050919050565b600061393b602083614454565b91507f4552433732313a206d696e7420746f20746865207a65726f20616464726573736000830152602082019050919050565b600061397b603183614454565b91507f45524337323155524953746f726167653a2055524920717565727920666f722060008301527f6e6f6e6578697374656e7420746f6b656e0000000000000000000000000000006020830152604082019050919050565b60006139e1601f83614454565b91507f4275696c6473706163653a204e6f20636f686f7274206c696d697420736574006000830152602082019050919050565b6000613a21602c83614454565b91507f4552433732313a20617070726f76656420717565727920666f72206e6f6e657860008301527f697374656e7420746f6b656e00000000000000000000000000000000000000006020830152604082019050919050565b6000613a87602083614454565b91507f4f776e61626c653a2063616c6c6572206973206e6f7420746865206f776e65726000830152602082019050919050565b6000613ac7602983614454565b91507f4552433732313a207472616e73666572206f6620746f6b656e2074686174206960008301527f73206e6f74206f776e00000000000000000000000000000000000000000000006020830152604082019050919050565b6000613b2d602f83614454565b91507f4552433732314d657461646174613a2055524920717565727920666f72206e6f60008301527f6e6578697374656e7420746f6b656e00000000000000000000000000000000006020830152604082019050919050565b6000613b93602183614454565b91507f4552433732313a20617070726f76616c20746f2063757272656e74206f776e6560008301527f72000000000000000000000000000000000000000000000000000000000000006020830152604082019050919050565b6000613bf9601783614454565b91507f4e6f7420616c6c6f77656420746f207472616e736665720000000000000000006000830152602082019050919050565b6000613c39603183614454565b91507f4552433732313a207472616e736665722063616c6c6572206973206e6f74206f60008301527f776e6572206e6f7220617070726f7665640000000000000000000000000000006020830152604082019050919050565b6000613c9f602a83614454565b91507f4275696c6473706163653a2061646472657373206e6f7420656c696769626c6560008301527f20666f7220636c61696d000000000000000000000000000000000000000000006020830152604082019050919050565b6000613d05600183614465565b91507f2d000000000000000000000000000000000000000000000000000000000000006000830152600182019050919050565b6000613d45602883614454565b91507f4275696c6473706163653a204c696d6974206d7573742062652067726561746560008301527f72207468616e20300000000000000000000000000000000000000000000000006020830152604082019050919050565b6000613dab602183614454565b91507f4275696c6473706163653a20436f686f727420616c726561647920657869737460008301527f73000000000000000000000000000000000000000000000000000000000000006020830152604082019050919050565b613e0d816145c5565b82525050565b613e1c8161460b565b82525050565b613e2b81614601565b82525050565b6000613e3d8284613383565b60148201915081905092915050565b6000613e5882856133b8565b602082019150613e6882846133b8565b6020820191508190509392505050565b6000613e848284613441565b915081905092915050565b6000613e9b8285613441565b9150613ea78284613441565b91508190509392505050565b6000613ebf8285613441565b9150613eca82613cf8565b9150613ed68284613441565b9150613ee18261357e565b91508190509392505050565b6000602082019050613f026000830184613374565b92915050565b6000608082019050613f1d6000830187613374565b613f2a6020830186613374565b613f376040830185613e22565b8181036060830152613f4981846133cf565b905095945050505050565b6000602082019050613f69600083018461339a565b92915050565b6000602082019050613f8460008301846133a9565b92915050565b60006020820190508181036000830152613fa48184613408565b905092915050565b60006020820190508181036000830152613fc581613472565b9050919050565b60006020820190508181036000830152613fe5816134d8565b9050919050565b600060208201905081810360008301526140058161353e565b9050919050565b60006020820190508181036000830152614025816135be565b9050919050565b6000602082019050818103600083015261404581613624565b9050919050565b6000602082019050818103600083015261406581613664565b9050919050565b60006020820190508181036000830152614085816136ca565b9050919050565b600060208201905081810360008301526140a581613730565b9050919050565b600060208201905081810360008301526140c581613796565b9050919050565b600060208201905081810360008301526140e5816137fc565b9050919050565b6000602082019050818103600083015261410581613862565b9050919050565b60006020820190508181036000830152614125816138c8565b9050919050565b600060208201905081810360008301526141458161392e565b9050919050565b600060208201905081810360008301526141658161396e565b9050919050565b60006020820190508181036000830152614185816139d4565b9050919050565b600060208201905081810360008301526141a581613a14565b9050919050565b600060208201905081810360008301526141c581613a7a565b9050919050565b600060208201905081810360008301526141e581613aba565b9050919050565b6000602082019050818103600083015261420581613b20565b9050919050565b6000602082019050818103600083015261422581613b86565b9050919050565b6000602082019050818103600083015261424581613bec565b9050919050565b6000602082019050818103600083015261426581613c2c565b9050919050565b6000602082019050818103600083015261428581613c92565b9050919050565b600060208201905081810360008301526142a581613d38565b9050919050565b600060208201905081810360008301526142c581613d9e565b9050919050565b60006020820190506142e16000830184613e04565b92915050565b60006060820190506142fc6000830186613e04565b6143096020830185613e04565b61431660408301846133a9565b949350505050565b60006060820190506143336000830186613e13565b6143406020830185613e22565b61434d604083018461339a565b949350505050565b600060208201905061436a6000830184613e22565b92915050565b6000604051905081810181811067ffffffffffffffff82111715614397576143966147f0565b5b8060405250919050565b600067ffffffffffffffff8211156143bc576143bb6147f0565b5b602082029050602081019050919050565b600067ffffffffffffffff8211156143e8576143e76147f0565b5b601f19601f8301169050602081019050919050565b600067ffffffffffffffff821115614418576144176147f0565b5b601f19601f8301169050602081019050919050565b600081519050919050565b600081519050919050565b600082825260208201905092915050565b600082825260208201905092915050565b600081905092915050565b600061447b826145c5565b9150614486836145c5565b9250826fffffffffffffffffffffffffffffffff038211156144ab576144aa614763565b5b828201905092915050565b60006144c182614601565b91506144cc83614601565b9250827fffffffffffffffffffffffffffffffffffffffffffffffffffffffffffffffff0382111561450157614500614763565b5b828201905092915050565b600061451782614601565b915061452283614601565b92508261453257614531614792565b5b828204905092915050565b600061454882614601565b915061455383614601565b92508282101561456657614565614763565b5b828203905092915050565b600061457c826145e1565b9050919050565b60008115159050919050565b6000819050919050565b60007fffffffff0000000000000000000000000000000000000000000000000000000082169050919050565b60006fffffffffffffffffffffffffffffffff82169050919050565b600073ffffffffffffffffffffffffffffffffffffffff82169050919050565b6000819050919050565b6000614616826145c5565b9050919050565b82818337600083830152505050565b60005b8381101561464a57808201518184015260208101905061462f565b83811115614659576000848401525b50505050565b600061466a82614601565b9150600082141561467e5761467d614763565b5b600182039050919050565b600060028204905060018216806146a157607f821691505b602082108114156146b5576146b46147c1565b5b50919050565b60006146c682614601565b91507fffffffffffffffffffffffffffffffffffffffffffffffffffffffffffffffff8214156146f9576146f8614763565b5b600182019050919050565b600061470f82614720565b9050919050565b6000819050919050565b600061472b82614830565b9050919050565b600061473d82614601565b915061474883614601565b92508261475857614757614792565b5b828206905092915050565b7f4e487b7100000000000000000000000000000000000000000000000000000000600052601160045260246000fd5b7f4e487b7100000000000000000000000000000000000000000000000000000000600052601260045260246000fd5b7f4e487b7100000000000000000000000000000000000000000000000000000000600052602260045260246000fd5b7f4e487b7100000000000000000000000000000000000000000000000000000000600052604160045260246000fd5b6000601f19601f8301169050919050565b60008160601b9050919050565b61484681614571565b811461485157600080fd5b50565b61485d81614583565b811461486857600080fd5b50565b6148748161458f565b811461487f57600080fd5b50565b61488b81614599565b811461489657600080fd5b50565b6148a2816145c5565b81146148ad57600080fd5b50565b6148b981614601565b81146148c457600080fd5b5056fea2646970667358221220b360bea7a0f9d4f2ac0ad88613b7476d86e7d8c30dd575f70019ef77f8d8a89964736f6c63430008000033",
  "linkReferences": {},
  "deployedLinkReferences": {}
}