{
  "_format": "hh-sol-artifact-1",
  "contractName": "Buildspace",
  "sourceName": "contracts/Buildspace.sol",
  "abi": [
    {
      "inputs": [
        {
          "internalType": "string",
          "name": "_contractBaseURI",
          "type": "string"
        }
      ],
      "stateMutability": "nonpayable",
      "type": "constructor"
    },
    {
      "anonymous": false,
      "inputs": [
        {
          "indexed": true,
          "internalType": "address",
          "name": "owner",
          "type": "address"
        },
        {
          "indexed": true,
          "internalType": "address",
          "name": "approved",
          "type": "address"
        },
        {
          "indexed": true,
          "internalType": "uint256",
          "name": "tokenId",
          "type": "uint256"
        }
      ],
      "name": "Approval",
      "type": "event"
    },
    {
      "anonymous": false,
      "inputs": [
        {
          "indexed": true,
          "internalType": "address",
          "name": "owner",
          "type": "address"
        },
        {
          "indexed": true,
          "internalType": "address",
          "name": "operator",
          "type": "address"
        },
        {
          "indexed": false,
          "internalType": "bool",
          "name": "approved",
          "type": "bool"
        }
      ],
      "name": "ApprovalForAll",
      "type": "event"
    },
    {
      "anonymous": false,
      "inputs": [
        {
          "indexed": true,
          "internalType": "address",
          "name": "_receiver",
          "type": "address"
        },
        {
          "indexed": true,
          "internalType": "string",
          "name": "_cohortId",
          "type": "string"
        },
        {
          "indexed": false,
          "internalType": "uint256",
          "name": "_cohortIndex",
          "type": "uint256"
        },
        {
          "indexed": false,
          "internalType": "uint256",
          "name": "_contractIndex",
          "type": "uint256"
        },
        {
          "indexed": false,
          "internalType": "bool",
          "name": "_isAdmin",
          "type": "bool"
        }
      ],
      "name": "Claim",
      "type": "event"
    },
    {
      "anonymous": false,
      "inputs": [
        {
          "indexed": true,
          "internalType": "address",
          "name": "from",
          "type": "address"
        },
        {
          "indexed": true,
          "internalType": "address",
          "name": "to",
          "type": "address"
        },
        {
          "indexed": true,
          "internalType": "uint256",
          "name": "tokenId",
          "type": "uint256"
        }
      ],
      "name": "Transfer",
      "type": "event"
    },
    {
      "inputs": [
        {
          "internalType": "string",
          "name": "_cohortId",
          "type": "string"
        },
        {
          "internalType": "address",
          "name": "to",
          "type": "address"
        }
      ],
      "name": "adminClaimToken",
      "outputs": [
        {
          "internalType": "uint256",
          "name": "",
          "type": "uint256"
        }
      ],
      "stateMutability": "nonpayable",
      "type": "function"
    },
    {
      "inputs": [
        {
          "internalType": "address",
          "name": "to",
          "type": "address"
        },
        {
          "internalType": "uint256",
          "name": "tokenId",
          "type": "uint256"
        }
      ],
      "name": "approve",
      "outputs": [],
      "stateMutability": "nonpayable",
      "type": "function"
    },
    {
      "inputs": [
        {
          "internalType": "address",
          "name": "owner",
          "type": "address"
        }
      ],
      "name": "balanceOf",
      "outputs": [
        {
          "internalType": "uint256",
          "name": "",
          "type": "uint256"
        }
      ],
      "stateMutability": "view",
      "type": "function"
    },
    {
      "inputs": [
        {
          "internalType": "string",
          "name": "_cohortId",
          "type": "string"
        },
        {
          "internalType": "bytes32[]",
          "name": "_proof",
          "type": "bytes32[]"
        }
      ],
      "name": "claimToken",
      "outputs": [
        {
          "internalType": "uint256",
          "name": "",
          "type": "uint256"
        }
      ],
      "stateMutability": "nonpayable",
      "type": "function"
    },
    {
      "inputs": [
        {
          "internalType": "address",
          "name": "",
          "type": "address"
        },
        {
          "internalType": "string",
          "name": "",
          "type": "string"
        }
      ],
      "name": "claimed",
      "outputs": [
        {
          "internalType": "bool",
          "name": "",
          "type": "bool"
        }
      ],
      "stateMutability": "view",
      "type": "function"
    },
    {
      "inputs": [
        {
          "internalType": "string",
          "name": "",
          "type": "string"
        }
      ],
      "name": "cohortLimits",
      "outputs": [
        {
          "internalType": "uint256",
          "name": "",
          "type": "uint256"
        }
      ],
      "stateMutability": "view",
      "type": "function"
    },
    {
      "inputs": [
        {
          "internalType": "string",
          "name": "",
          "type": "string"
        }
      ],
      "name": "cohortTokensMinted",
      "outputs": [
        {
          "internalType": "uint256",
          "name": "",
          "type": "uint256"
        }
      ],
      "stateMutability": "view",
      "type": "function"
    },
    {
      "inputs": [
        {
          "internalType": "string",
          "name": "_cohortId",
          "type": "string"
        },
        {
          "internalType": "uint256",
          "name": "_limit",
          "type": "uint256"
        }
      ],
      "name": "createCohort",
      "outputs": [],
      "stateMutability": "nonpayable",
      "type": "function"
    },
    {
      "inputs": [
        {
          "internalType": "uint256",
          "name": "tokenId",
          "type": "uint256"
        }
      ],
      "name": "getApproved",
      "outputs": [
        {
          "internalType": "address",
          "name": "",
          "type": "address"
        }
      ],
      "stateMutability": "view",
      "type": "function"
    },
    {
      "inputs": [
        {
          "internalType": "address",
          "name": "owner",
          "type": "address"
        },
        {
          "internalType": "address",
          "name": "operator",
          "type": "address"
        }
      ],
      "name": "isApprovedForAll",
      "outputs": [
        {
          "internalType": "bool",
          "name": "",
          "type": "bool"
        }
      ],
      "stateMutability": "view",
      "type": "function"
    },
    {
      "inputs": [
        {
          "internalType": "string",
          "name": "_cohortId",
          "type": "string"
        }
      ],
      "name": "limitForCohort",
      "outputs": [
        {
          "internalType": "uint256",
          "name": "",
          "type": "uint256"
        }
      ],
      "stateMutability": "view",
      "type": "function"
    },
    {
      "inputs": [],
      "name": "name",
      "outputs": [
        {
          "internalType": "string",
          "name": "",
          "type": "string"
        }
      ],
      "stateMutability": "view",
      "type": "function"
    },
    {
      "inputs": [
        {
          "internalType": "uint256",
          "name": "tokenId",
          "type": "uint256"
        }
      ],
      "name": "ownerOf",
      "outputs": [
        {
          "internalType": "address",
          "name": "",
          "type": "address"
        }
      ],
      "stateMutability": "view",
      "type": "function"
    },
    {
      "inputs": [
        {
          "internalType": "address",
          "name": "from",
          "type": "address"
        },
        {
          "internalType": "address",
          "name": "to",
          "type": "address"
        },
        {
          "internalType": "uint256",
          "name": "tokenId",
          "type": "uint256"
        }
      ],
      "name": "safeTransferFrom",
      "outputs": [],
      "stateMutability": "nonpayable",
      "type": "function"
    },
    {
      "inputs": [
        {
          "internalType": "address",
          "name": "from",
          "type": "address"
        },
        {
          "internalType": "address",
          "name": "to",
          "type": "address"
        },
        {
          "internalType": "uint256",
          "name": "tokenId",
          "type": "uint256"
        },
        {
          "internalType": "bytes",
          "name": "_data",
          "type": "bytes"
        }
      ],
      "name": "safeTransferFrom",
      "outputs": [],
      "stateMutability": "nonpayable",
      "type": "function"
    },
    {
      "inputs": [
        {
          "internalType": "bool",
          "name": "_allowsTransfers",
          "type": "bool"
        }
      ],
      "name": "setAllowsTransfers",
      "outputs": [],
      "stateMutability": "nonpayable",
      "type": "function"
    },
    {
      "inputs": [
        {
          "internalType": "address",
          "name": "operator",
          "type": "address"
        },
        {
          "internalType": "bool",
          "name": "approved",
          "type": "bool"
        }
      ],
      "name": "setApprovalForAll",
      "outputs": [],
      "stateMutability": "nonpayable",
      "type": "function"
    },
    {
      "inputs": [
        {
          "internalType": "string",
          "name": "_cohortId",
          "type": "string"
        },
        {
          "internalType": "bytes32",
          "name": "_merkleRoot",
          "type": "bytes32"
        }
      ],
      "name": "setMerkleRoot",
      "outputs": [],
      "stateMutability": "nonpayable",
      "type": "function"
    },
    {
      "inputs": [
        {
          "internalType": "bytes4",
          "name": "interfaceId",
          "type": "bytes4"
        }
      ],
      "name": "supportsInterface",
      "outputs": [
        {
          "internalType": "bool",
          "name": "",
          "type": "bool"
        }
      ],
      "stateMutability": "view",
      "type": "function"
    },
    {
      "inputs": [],
      "name": "symbol",
      "outputs": [
        {
          "internalType": "string",
          "name": "",
          "type": "string"
        }
      ],
      "stateMutability": "view",
      "type": "function"
    },
    {
      "inputs": [
        {
          "internalType": "uint256",
          "name": "tokenId",
          "type": "uint256"
        }
      ],
      "name": "tokenURI",
      "outputs": [
        {
          "internalType": "string",
          "name": "",
          "type": "string"
        }
      ],
      "stateMutability": "view",
      "type": "function"
    },
    {
      "inputs": [
        {
          "internalType": "string",
          "name": "_cohortId",
          "type": "string"
        }
      ],
      "name": "tokensClaimedForCohort",
      "outputs": [
        {
          "internalType": "uint256",
          "name": "",
          "type": "uint256"
        }
      ],
      "stateMutability": "view",
      "type": "function"
    },
    {
      "inputs": [
        {
          "internalType": "address",
          "name": "from",
          "type": "address"
        },
        {
          "internalType": "address",
          "name": "to",
          "type": "address"
        },
        {
          "internalType": "uint256",
          "name": "tokenId",
          "type": "uint256"
        }
      ],
      "name": "transferFrom",
      "outputs": [],
      "stateMutability": "nonpayable",
      "type": "function"
    },
    {
      "inputs": [
        {
          "internalType": "address",
          "name": "_admin",
          "type": "address"
        },
        {
          "internalType": "bool",
          "name": "isAdmin",
          "type": "bool"
        }
      ],
      "name": "updateAdmin",
      "outputs": [],
      "stateMutability": "nonpayable",
      "type": "function"
    }
  ],
  "bytecode": "0x60806040526000600f60006101000a81548160ff0219169083151502179055503480156200002c57600080fd5b506040516200450e3803806200450e8339818101604052810190620000529190620002cd565b6040518060400160405280600a81526020017f6275696c647370616365000000000000000000000000000000000000000000008152506040518060400160405280600a81526020017f4255494c445350414345000000000000000000000000000000000000000000008152508160009080519060200190620000d6929190620001ab565b508060019080519060200190620000ef929190620001ab565b50505033600d60006101000a81548173ffffffffffffffffffffffffffffffffffffffff021916908373ffffffffffffffffffffffffffffffffffffffff1602179055506001600b60003373ffffffffffffffffffffffffffffffffffffffff1673ffffffffffffffffffffffffffffffffffffffff16815260200190815260200160002060006101000a81548160ff02191690831515021790555080600e9080519060200190620001a3929190620001ab565b505062000443565b828054620001b990620003af565b90600052602060002090601f016020900481019282620001dd576000855562000229565b82601f10620001f857805160ff191683800117855562000229565b8280016001018555821562000229579182015b82811115620002285782518255916020019190600101906200020b565b5b5090506200023891906200023c565b5090565b5b80821115620002575760008160009055506001016200023d565b5090565b6000620002726200026c8462000346565b62000312565b9050828152602081018484840111156200028b57600080fd5b6200029884828562000379565b509392505050565b600082601f830112620002b257600080fd5b8151620002c48482602086016200025b565b91505092915050565b600060208284031215620002e057600080fd5b600082015167ffffffffffffffff811115620002fb57600080fd5b6200030984828501620002a0565b91505092915050565b6000604051905081810181811067ffffffffffffffff821117156200033c576200033b62000414565b5b8060405250919050565b600067ffffffffffffffff82111562000364576200036362000414565b5b601f19601f8301169050602081019050919050565b60005b83811015620003995780820151818401526020810190506200037c565b83811115620003a9576000848401525b50505050565b60006002820490506001821680620003c857607f821691505b60208210811415620003df57620003de620003e5565b5b50919050565b7f4e487b7100000000000000000000000000000000000000000000000000000000600052602260045260246000fd5b7f4e487b7100000000000000000000000000000000000000000000000000000000600052604160045260246000fd5b6140bb80620004536000396000f3fe608060405234801561001057600080fd5b50600436106101585760003560e01c8063670a6fd9116100c3578063b88d4fde1161007c578063b88d4fde146103f9578063c87b56dd14610415578063ca70289914610445578063dbc1910214610475578063e6f7de14146104a5578063e985e9c5146104d557610158565b8063670a6fd91461032757806370a08231146103435780638b4579bf1461037357806395d89b41146103a3578063a22cb465146103c1578063b7aafa87146103dd57610158565b806330703da81161011557806330703da814610243578063345d68181461025f57806342842e0e1461028f5780635e51d31a146102ab5780636274b26c146102c75780636352211e146102f757610158565b806301ffc9a71461015d57806306fdde031461018d578063081812fc146101ab578063095ea7b3146101db578063163cf2e3146101f757806323b872dd14610227575b600080fd5b61017760048036038101906101729190612b9f565b610505565b604051610184919061386a565b60405180910390f35b6101956105e7565b6040516101a29190613885565b60405180910390f35b6101c560048036038101906101c09190612d9a565b610679565b6040516101d29190613803565b60405180910390f35b6101f560048036038101906101f09190612b3a565b6106fe565b005b610211600480360381019061020c9190612c32565b610816565b60405161021e9190613b67565b60405180910390f35b610241600480360381019061023c91906129e0565b6109b4565b005b61025d60048036038101906102589190612d46565b610a14565b005b61027960048036038101906102749190612c86565b610abc565b6040516102869190613b67565b60405180910390f35b6102a960048036038101906102a491906129e0565b610c91565b005b6102c560048036038101906102c09190612b76565b610cb1565b005b6102e160048036038101906102dc9190612bf1565b610d2b565b6040516102ee9190613b67565b60405180910390f35b610311600480360381019061030c9190612d9a565b610d59565b60405161031e9190613803565b60405180910390f35b610341600480360381019061033c9190612aaa565b610e0b565b005b61035d6004803603810190610358919061297b565b610ef6565b60405161036a9190613b67565b60405180910390f35b61038d60048036038101906103889190612bf1565b610fae565b60405161039a9190613b67565b60405180910390f35b6103ab610fd6565b6040516103b89190613885565b60405180910390f35b6103db60048036038101906103d69190612aaa565b611068565b005b6103f760048036038101906103f29190612cf2565b6111e9565b005b610413600480360381019061040e9190612a2f565b6112ce565b005b61042f600480360381019061042a9190612d9a565b611330565b60405161043c9190613885565b60405180910390f35b61045f600480360381019061045a9190612bf1565b611482565b60405161046c9190613b67565b60405180910390f35b61048f600480360381019061048a9190612ae6565b6114aa565b60405161049c919061386a565b60405180910390f35b6104bf60048036038101906104ba9190612bf1565b6114ef565b6040516104cc9190613b67565b60405180910390f35b6104ef60048036038101906104ea91906129a4565b61151d565b6040516104fc919061386a565b60405180910390f35b60007f80ac58cd000000000000000000000000000000000000000000000000000000007bffffffffffffffffffffffffffffffffffffffffffffffffffffffff1916827bffffffffffffffffffffffffffffffffffffffffffffffffffffffff191614806105d057507f5b5e139f000000000000000000000000000000000000000000000000000000007bffffffffffffffffffffffffffffffffffffffffffffffffffffffff1916827bffffffffffffffffffffffffffffffffffffffffffffffffffffffff1916145b806105e057506105df826115b1565b5b9050919050565b6060600080546105f690613e5e565b80601f016020809104026020016040519081016040528092919081815260200182805461062290613e5e565b801561066f5780601f106106445761010080835404028352916020019161066f565b820191906000526020600020905b81548152906001019060200180831161065257829003601f168201915b5050505050905090565b60006106848261161b565b6106c3576040517f08c379a00000000000000000000000000000000000000000000000000000000081526004016106ba90613a67565b60405180910390fd5b6004600083815260200190815260200160002060009054906101000a900473ffffffffffffffffffffffffffffffffffffffff169050919050565b600061070982610d59565b90508073ffffffffffffffffffffffffffffffffffffffff168373ffffffffffffffffffffffffffffffffffffffff16141561077a576040517f08c379a000000000000000000000000000000000000000000000000000000000815260040161077190613ac7565b60405180910390fd5b8073ffffffffffffffffffffffffffffffffffffffff16610799611687565b73ffffffffffffffffffffffffffffffffffffffff1614806107c857506107c7816107c2611687565b61151d565b5b610807576040517f08c379a00000000000000000000000000000000000000000000000000000000081526004016107fe906139a7565b60405180910390fd5b610811838361168f565b505050565b600060011515600b60003373ffffffffffffffffffffffffffffffffffffffff1673ffffffffffffffffffffffffffffffffffffffff16815260200190815260200160002060009054906101000a900460ff1615151461087557600080fd5b8282600882604051610887919061378e565b9081526020016040518091039020546009836040516108a6919061378e565b908152602001604051809103902054106108f5576040517f08c379a00000000000000000000000000000000000000000000000000000000081526004016108ec90613987565b60405180910390fd5b600760008273ffffffffffffffffffffffffffffffffffffffff1673ffffffffffffffffffffffffffffffffffffffff16815260200190815260200160002082604051610942919061378e565b908152602001604051809103902060009054906101000a900460ff161561099e576040517f08c379a000000000000000000000000000000000000000000000000000000000815260040161099590613967565b60405180910390fd5b6109aa85856001611748565b9250505092915050565b6109c56109bf611687565b826118de565b610a04576040517f08c379a00000000000000000000000000000000000000000000000000000000081526004016109fb90613b27565b60405180910390fd5b610a0f8383836119bc565b505050565b60011515600b60003373ffffffffffffffffffffffffffffffffffffffff1673ffffffffffffffffffffffffffffffffffffffff16815260200190815260200160002060009054906101000a900460ff16151514610a7157600080fd5b80600883604051610a82919061378e565b9081526020016040518091039020819055506000600983604051610aa6919061378e565b9081526020016040518091039020819055505050565b60008233600882604051610ad0919061378e565b908152602001604051809103902054600983604051610aef919061378e565b90815260200160405180910390205410610b3e576040517f08c379a0000000000000000000000000000000000000000000000000000000008152600401610b3590613987565b60405180910390fd5b600760008273ffffffffffffffffffffffffffffffffffffffff1673ffffffffffffffffffffffffffffffffffffffff16815260200190815260200160002082604051610b8b919061378e565b908152602001604051809103902060009054906101000a900460ff1615610be7576040517f08c379a0000000000000000000000000000000000000000000000000000000008152600401610bde90613967565b60405180910390fd5b600033604051602001610bfa9190613747565b604051602081830303815290604052805190602001209050610c3b85600a88604051610c26919061378e565b90815260200160405180910390205483611c18565b610c7a576040517f08c379a0000000000000000000000000000000000000000000000000000000008152600401610c7190613b47565b60405180910390fd5b610c8686336000611748565b935050505092915050565b610cac838383604051806020016040528060008152506112ce565b505050565b60011515600b60003373ffffffffffffffffffffffffffffffffffffffff1673ffffffffffffffffffffffffffffffffffffffff16815260200190815260200160002060009054906101000a900460ff16151514610d0e57600080fd5b80600f60006101000a81548160ff02191690831515021790555050565b6008818051602081018201805184825260208301602085012081835280955050505050506000915090505481565b6000806002600084815260200190815260200160002060009054906101000a900473ffffffffffffffffffffffffffffffffffffffff169050600073ffffffffffffffffffffffffffffffffffffffff168173ffffffffffffffffffffffffffffffffffffffff161415610e02576040517f08c379a0000000000000000000000000000000000000000000000000000000008152600401610df9906139e7565b60405180910390fd5b80915050919050565b600d60009054906101000a900473ffffffffffffffffffffffffffffffffffffffff1673ffffffffffffffffffffffffffffffffffffffff163373ffffffffffffffffffffffffffffffffffffffff1614610e9b576040517f08c379a0000000000000000000000000000000000000000000000000000000008152600401610e9290613b07565b60405180910390fd5b80600b60008473ffffffffffffffffffffffffffffffffffffffff1673ffffffffffffffffffffffffffffffffffffffff16815260200190815260200160002060006101000a81548160ff0219169083151502179055505050565b60008073ffffffffffffffffffffffffffffffffffffffff168273ffffffffffffffffffffffffffffffffffffffff161415610f67576040517f08c379a0000000000000000000000000000000000000000000000000000000008152600401610f5e906139c7565b60405180910390fd5b600360008373ffffffffffffffffffffffffffffffffffffffff1673ffffffffffffffffffffffffffffffffffffffff168152602001908152602001600020549050919050565b6000600982604051610fc0919061378e565b9081526020016040518091039020549050919050565b606060018054610fe590613e5e565b80601f016020809104026020016040519081016040528092919081815260200182805461101190613e5e565b801561105e5780601f106110335761010080835404028352916020019161105e565b820191906000526020600020905b81548152906001019060200180831161104157829003601f168201915b5050505050905090565b611070611687565b73ffffffffffffffffffffffffffffffffffffffff168273ffffffffffffffffffffffffffffffffffffffff1614156110de576040517f08c379a00000000000000000000000000000000000000000000000000000000081526004016110d590613907565b60405180910390fd5b80600560006110eb611687565b73ffffffffffffffffffffffffffffffffffffffff1673ffffffffffffffffffffffffffffffffffffffff16815260200190815260200160002060008473ffffffffffffffffffffffffffffffffffffffff1673ffffffffffffffffffffffffffffffffffffffff16815260200190815260200160002060006101000a81548160ff0219169083151502179055508173ffffffffffffffffffffffffffffffffffffffff16611198611687565b73ffffffffffffffffffffffffffffffffffffffff167f17307eab39ab6107e8899845ad3d59bd9653f200f220920489ca2b5937696c31836040516111dd919061386a565b60405180910390a35050565b60011515600b60003373ffffffffffffffffffffffffffffffffffffffff1673ffffffffffffffffffffffffffffffffffffffff16815260200190815260200160002060009054906101000a900460ff1615151461124657600080fd5b6000600883604051611258919061378e565b908152602001604051809103902054116112a7576040517f08c379a000000000000000000000000000000000000000000000000000000000815260040161129e90613947565b60405180910390fd5b80600a836040516112b8919061378e565b9081526020016040518091039020819055505050565b6112df6112d9611687565b836118de565b61131e576040517f08c379a000000000000000000000000000000000000000000000000000000000815260040161131590613b27565b60405180910390fd5b61132a84848484611cf4565b50505050565b606061133b8261161b565b61137a576040517f08c379a000000000000000000000000000000000000000000000000000000000815260040161137190613a47565b60405180910390fd5b600060066000848152602001908152602001600020805461139a90613e5e565b80601f01602080910402602001604051908101604052809291908181526020018280546113c690613e5e565b80156114135780601f106113e857610100808354040283529160200191611413565b820191906000526020600020905b8154815290600101906020018083116113f657829003601f168201915b505050505090506000611424611d50565b905060008151141561143a57819250505061147d565b60008251111561146f5780826040516020016114579291906137a5565b6040516020818303038152906040529250505061147d565b61147884611de2565b925050505b919050565b6000600882604051611494919061378e565b9081526020016040518091039020549050919050565b6007602052816000526040600020818051602081018201805184825260208301602085012081835280955050505050506000915091509054906101000a900460ff1681565b6009818051602081018201805184825260208301602085012081835280955050505050506000915090505481565b6000600560008473ffffffffffffffffffffffffffffffffffffffff1673ffffffffffffffffffffffffffffffffffffffff16815260200190815260200160002060008373ffffffffffffffffffffffffffffffffffffffff1673ffffffffffffffffffffffffffffffffffffffff16815260200190815260200160002060009054906101000a900460ff16905092915050565b60007f01ffc9a7000000000000000000000000000000000000000000000000000000007bffffffffffffffffffffffffffffffffffffffffffffffffffffffff1916827bffffffffffffffffffffffffffffffffffffffffffffffffffffffff1916149050919050565b60008073ffffffffffffffffffffffffffffffffffffffff166002600084815260200190815260200160002060009054906101000a900473ffffffffffffffffffffffffffffffffffffffff1673ffffffffffffffffffffffffffffffffffffffff1614159050919050565b600033905090565b816004600083815260200190815260200160002060006101000a81548173ffffffffffffffffffffffffffffffffffffffff021916908373ffffffffffffffffffffffffffffffffffffffff160217905550808273ffffffffffffffffffffffffffffffffffffffff1661170283610d59565b73ffffffffffffffffffffffffffffffffffffffff167f8c5be1e5ebec7d5bd14f71427d1e84f3dd0314c0f7b2291e5b200ac8c7c3b92560405160405180910390a45050565b60008060098560405161175b919061378e565b908152602001604051809103902054905060008561177883611e89565b6040516020016117899291906137c9565b604051602081830303815290604052905060006117a6600c61203c565b90506117b2868261204a565b6001600760008873ffffffffffffffffffffffffffffffffffffffff1673ffffffffffffffffffffffffffffffffffffffff16815260200190815260200160002088604051611801919061378e565b908152602001604051809103902060006101000a81548160ff02191690831515021790555086604051611834919061378e565b60405180910390208673ffffffffffffffffffffffffffffffffffffffff167f54f1fcc7abca6cedb6f671f32124fdb7e22d954e8e32d245d3c9e08212c0c27685848960405161188693929190613b82565b60405180910390a36118988183612068565b6001836118a59190613cb9565b6009886040516118b5919061378e565b9081526020016040518091039020819055506118d1600c6120dc565b8093505050509392505050565b60006118e98261161b565b611928576040517f08c379a000000000000000000000000000000000000000000000000000000000815260040161191f90613927565b60405180910390fd5b600061193383610d59565b90508073ffffffffffffffffffffffffffffffffffffffff168473ffffffffffffffffffffffffffffffffffffffff1614806119a257508373ffffffffffffffffffffffffffffffffffffffff1661198a84610679565b73ffffffffffffffffffffffffffffffffffffffff16145b806119b357506119b2818561151d565b5b91505092915050565b8273ffffffffffffffffffffffffffffffffffffffff166119dc82610d59565b73ffffffffffffffffffffffffffffffffffffffff1614611a32576040517f08c379a0000000000000000000000000000000000000000000000000000000008152600401611a2990613a87565b60405180910390fd5b600073ffffffffffffffffffffffffffffffffffffffff168273ffffffffffffffffffffffffffffffffffffffff161415611aa2576040517f08c379a0000000000000000000000000000000000000000000000000000000008152600401611a99906138e7565b60405180910390fd5b611aad8383836120f2565b611ab860008261168f565b6001600360008573ffffffffffffffffffffffffffffffffffffffff1673ffffffffffffffffffffffffffffffffffffffff1681526020019081526020016000206000828254611b089190613d40565b925050819055506001600360008473ffffffffffffffffffffffffffffffffffffffff1673ffffffffffffffffffffffffffffffffffffffff1681526020019081526020016000206000828254611b5f9190613cb9565b92505081905550816002600083815260200190815260200160002060006101000a81548173ffffffffffffffffffffffffffffffffffffffff021916908373ffffffffffffffffffffffffffffffffffffffff160217905550808273ffffffffffffffffffffffffffffffffffffffff168473ffffffffffffffffffffffffffffffffffffffff167fddf252ad1be2c89b69c2b068fc378daa952ba7f163c4a11628f55a4df523b3ef60405160405180910390a4505050565b60008082905060005b8551811015611ce6576000868281518110611c65577f4e487b7100000000000000000000000000000000000000000000000000000000600052603260045260246000fd5b60200260200101519050808311611ca6578281604051602001611c89929190613762565b604051602081830303815290604052805190602001209250611cd2565b8083604051602001611cb9929190613762565b6040516020818303038152906040528051906020012092505b508080611cde90613e90565b915050611c21565b508381149150509392505050565b611cff8484846119bc565b611d0b8484848461216f565b611d4a576040517f08c379a0000000000000000000000000000000000000000000000000000000008152600401611d41906138a7565b60405180910390fd5b50505050565b6060600e8054611d5f90613e5e565b80601f0160208091040260200160405190810160405280929190818152602001828054611d8b90613e5e565b8015611dd85780601f10611dad57610100808354040283529160200191611dd8565b820191906000526020600020905b815481529060010190602001808311611dbb57829003601f168201915b5050505050905090565b6060611ded8261161b565b611e2c576040517f08c379a0000000000000000000000000000000000000000000000000000000008152600401611e2390613aa7565b60405180910390fd5b6000611e36611d50565b90506000815111611e565760405180602001604052806000815250611e81565b80611e6084612306565b604051602001611e719291906137a5565b6040516020818303038152906040525b915050919050565b60606000821415611ed1576040518060400160405280600181526020017f30000000000000000000000000000000000000000000000000000000000000008152509050612037565b600082905060005b60008214611f03578080611eec90613e90565b915050600a82611efc9190613d0f565b9150611ed9565b60008167ffffffffffffffff811115611f45577f4e487b7100000000000000000000000000000000000000000000000000000000600052604160045260246000fd5b6040519080825280601f01601f191660200182016040528015611f775781602001600182028036833780820191505090505b50905060008290508593505b6000841461202f57600a84611f989190613f07565b6030611fa49190613cb9565b60f81b8282611fb290613e34565b92508281518110611fec577f4e487b7100000000000000000000000000000000000000000000000000000000600052603260045260246000fd5b60200101907effffffffffffffffffffffffffffffffffffffffffffffffffffffffffffff1916908160001a905350600a846120289190613d0f565b9350611f83565b819450505050505b919050565b600081600001549050919050565b6120648282604051806020016040528060008152506124b3565b5050565b6120718261161b565b6120b0576040517f08c379a00000000000000000000000000000000000000000000000000000000081526004016120a790613a07565b60405180910390fd5b806006600084815260200190815260200160002090805190602001906120d79291906126f4565b505050565b6001816000016000828254019250508190555050565b600015156120ff8261161b565b15151480612120575060011515600f60009054906101000a900460ff161515145b61215f576040517f08c379a000000000000000000000000000000000000000000000000000000000815260040161215690613ae7565b60405180910390fd5b61216a83838361250e565b505050565b60006121908473ffffffffffffffffffffffffffffffffffffffff16612513565b156122f9578373ffffffffffffffffffffffffffffffffffffffff1663150b7a026121b9611687565b8786866040518563ffffffff1660e01b81526004016121db949392919061381e565b602060405180830381600087803b1580156121f557600080fd5b505af192505050801561222657506040513d601f19601f820116820180604052508101906122239190612bc8565b60015b6122a9573d8060008114612256576040519150601f19603f3d011682016040523d82523d6000602084013e61225b565b606091505b506000815114156122a1576040517f08c379a0000000000000000000000000000000000000000000000000000000008152600401612298906138a7565b60405180910390fd5b805181602001fd5b63150b7a0260e01b7bffffffffffffffffffffffffffffffffffffffffffffffffffffffff1916817bffffffffffffffffffffffffffffffffffffffffffffffffffffffff1916149150506122fe565b600190505b949350505050565b6060600082141561234e576040518060400160405280600181526020017f300000000000000000000000000000000000000000000000000000000000000081525090506124ae565b600082905060005b6000821461238057808061236990613e90565b915050600a826123799190613d0f565b9150612356565b60008167ffffffffffffffff8111156123c2577f4e487b7100000000000000000000000000000000000000000000000000000000600052604160045260246000fd5b6040519080825280601f01601f1916602001820160405280156123f45781602001600182028036833780820191505090505b5090505b600085146124a75760018261240d9190613d40565b9150600a8561241c9190613f07565b60306124289190613cb9565b60f81b818381518110612464577f4e487b7100000000000000000000000000000000000000000000000000000000600052603260045260246000fd5b60200101907effffffffffffffffffffffffffffffffffffffffffffffffffffffffffffff1916908160001a905350600a856124a09190613d0f565b94506123f8565b8093505050505b919050565b6124bd8383612526565b6124ca600084848461216f565b612509576040517f08c379a0000000000000000000000000000000000000000000000000000000008152600401612500906138a7565b60405180910390fd5b505050565b505050565b600080823b905060008111915050919050565b600073ffffffffffffffffffffffffffffffffffffffff168273ffffffffffffffffffffffffffffffffffffffff161415612596576040517f08c379a000000000000000000000000000000000000000000000000000000000815260040161258d90613a27565b60405180910390fd5b61259f8161161b565b156125df576040517f08c379a00000000000000000000000000000000000000000000000000000000081526004016125d6906138c7565b60405180910390fd5b6125eb600083836120f2565b6001600360008473ffffffffffffffffffffffffffffffffffffffff1673ffffffffffffffffffffffffffffffffffffffff168152602001908152602001600020600082825461263b9190613cb9565b92505081905550816002600083815260200190815260200160002060006101000a81548173ffffffffffffffffffffffffffffffffffffffff021916908373ffffffffffffffffffffffffffffffffffffffff160217905550808273ffffffffffffffffffffffffffffffffffffffff16600073ffffffffffffffffffffffffffffffffffffffff167fddf252ad1be2c89b69c2b068fc378daa952ba7f163c4a11628f55a4df523b3ef60405160405180910390a45050565b82805461270090613e5e565b90600052602060002090601f0160209004810192826127225760008555612769565b82601f1061273b57805160ff1916838001178555612769565b82800160010185558215612769579182015b8281111561276857825182559160200191906001019061274d565b5b509050612776919061277a565b5090565b5b8082111561279357600081600090555060010161277b565b5090565b60006127aa6127a584613bea565b613bb9565b905080838252602082019050828560208602820111156127c957600080fd5b60005b858110156127f957816127df88826128d3565b8452602084019350602083019250506001810190506127cc565b5050509392505050565b600061281661281184613c16565b613bb9565b90508281526020810184848401111561282e57600080fd5b612839848285613df2565b509392505050565b600061285461284f84613c46565b613bb9565b90508281526020810184848401111561286c57600080fd5b612877848285613df2565b509392505050565b60008135905061288e81614012565b92915050565b600082601f8301126128a557600080fd5b81356128b5848260208601612797565b91505092915050565b6000813590506128cd81614029565b92915050565b6000813590506128e281614040565b92915050565b6000813590506128f781614057565b92915050565b60008151905061290c81614057565b92915050565b600082601f83011261292357600080fd5b8135612933848260208601612803565b91505092915050565b600082601f83011261294d57600080fd5b813561295d848260208601612841565b91505092915050565b6000813590506129758161406e565b92915050565b60006020828403121561298d57600080fd5b600061299b8482850161287f565b91505092915050565b600080604083850312156129b757600080fd5b60006129c58582860161287f565b92505060206129d68582860161287f565b9150509250929050565b6000806000606084860312156129f557600080fd5b6000612a038682870161287f565b9350506020612a148682870161287f565b9250506040612a2586828701612966565b9150509250925092565b60008060008060808587031215612a4557600080fd5b6000612a538782880161287f565b9450506020612a648782880161287f565b9350506040612a7587828801612966565b925050606085013567ffffffffffffffff811115612a9257600080fd5b612a9e87828801612912565b91505092959194509250565b60008060408385031215612abd57600080fd5b6000612acb8582860161287f565b9250506020612adc858286016128be565b9150509250929050565b60008060408385031215612af957600080fd5b6000612b078582860161287f565b925050602083013567ffffffffffffffff811115612b2457600080fd5b612b308582860161293c565b9150509250929050565b60008060408385031215612b4d57600080fd5b6000612b5b8582860161287f565b9250506020612b6c85828601612966565b9150509250929050565b600060208284031215612b8857600080fd5b6000612b96848285016128be565b91505092915050565b600060208284031215612bb157600080fd5b6000612bbf848285016128e8565b91505092915050565b600060208284031215612bda57600080fd5b6000612be8848285016128fd565b91505092915050565b600060208284031215612c0357600080fd5b600082013567ffffffffffffffff811115612c1d57600080fd5b612c298482850161293c565b91505092915050565b60008060408385031215612c4557600080fd5b600083013567ffffffffffffffff811115612c5f57600080fd5b612c6b8582860161293c565b9250506020612c7c8582860161287f565b9150509250929050565b60008060408385031215612c9957600080fd5b600083013567ffffffffffffffff811115612cb357600080fd5b612cbf8582860161293c565b925050602083013567ffffffffffffffff811115612cdc57600080fd5b612ce885828601612894565b9150509250929050565b60008060408385031215612d0557600080fd5b600083013567ffffffffffffffff811115612d1f57600080fd5b612d2b8582860161293c565b9250506020612d3c858286016128d3565b9150509250929050565b60008060408385031215612d5957600080fd5b600083013567ffffffffffffffff811115612d7357600080fd5b612d7f8582860161293c565b9250506020612d9085828601612966565b9150509250929050565b600060208284031215612dac57600080fd5b6000612dba84828501612966565b91505092915050565b612dcc81613d74565b82525050565b612de3612dde82613d74565b613ed9565b82525050565b612df281613d86565b82525050565b612e09612e0482613d92565b613eeb565b82525050565b6000612e1a82613c76565b612e248185613c8c565b9350612e34818560208601613e01565b612e3d81613ff4565b840191505092915050565b6000612e5382613c81565b612e5d8185613c9d565b9350612e6d818560208601613e01565b612e7681613ff4565b840191505092915050565b6000612e8c82613c81565b612e968185613cae565b9350612ea6818560208601613e01565b80840191505092915050565b6000612ebf603283613c9d565b91507f4552433732313a207472616e7366657220746f206e6f6e20455243373231526560008301527f63656976657220696d706c656d656e74657200000000000000000000000000006020830152604082019050919050565b6000612f25601c83613c9d565b91507f4552433732313a20746f6b656e20616c7265616479206d696e746564000000006000830152602082019050919050565b6000612f65600e83613cae565b91507f2f6d657461646174612e6a736f6e0000000000000000000000000000000000006000830152600e82019050919050565b6000612fa5602483613c9d565b91507f4552433732313a207472616e7366657220746f20746865207a65726f2061646460008301527f72657373000000000000000000000000000000000000000000000000000000006020830152604082019050919050565b600061300b601983613c9d565b91507f4552433732313a20617070726f766520746f2063616c6c6572000000000000006000830152602082019050919050565b600061304b602c83613c9d565b91507f4552433732313a206f70657261746f7220717565727920666f72206e6f6e657860008301527f697374656e7420746f6b656e00000000000000000000000000000000000000006020830152604082019050919050565b60006130b1601383613c9d565b91507f4e6f20636f686f7274206c696d697420736574000000000000000000000000006000830152602082019050919050565b60006130f1602e83613c9d565b91507f4275696c6473706163653a20616464726573732068617320616c72656164792060008301527f636c61696d656420746f6b656e2e0000000000000000000000000000000000006020830152604082019050919050565b6000613157602883613c9d565b91507f4275696c6473706163653a206d617820746f6b656e732069737375656420666f60008301527f7220636f686f72740000000000000000000000000000000000000000000000006020830152604082019050919050565b60006131bd603883613c9d565b91507f4552433732313a20617070726f76652063616c6c6572206973206e6f74206f7760008301527f6e6572206e6f7220617070726f76656420666f7220616c6c00000000000000006020830152604082019050919050565b6000613223602a83613c9d565b91507f4552433732313a2062616c616e636520717565727920666f7220746865207a6560008301527f726f2061646472657373000000000000000000000000000000000000000000006020830152604082019050919050565b6000613289602983613c9d565b91507f4552433732313a206f776e657220717565727920666f72206e6f6e657869737460008301527f656e7420746f6b656e00000000000000000000000000000000000000000000006020830152604082019050919050565b60006132ef602e83613c9d565b91507f45524337323155524953746f726167653a2055524920736574206f66206e6f6e60008301527f6578697374656e7420746f6b656e0000000000000000000000000000000000006020830152604082019050919050565b6000613355602083613c9d565b91507f4552433732313a206d696e7420746f20746865207a65726f20616464726573736000830152602082019050919050565b6000613395603183613c9d565b91507f45524337323155524953746f726167653a2055524920717565727920666f722060008301527f6e6f6e6578697374656e7420746f6b656e0000000000000000000000000000006020830152604082019050919050565b60006133fb602c83613c9d565b91507f4552433732313a20617070726f76656420717565727920666f72206e6f6e657860008301527f697374656e7420746f6b656e00000000000000000000000000000000000000006020830152604082019050919050565b6000613461602983613c9d565b91507f4552433732313a207472616e73666572206f6620746f6b656e2074686174206960008301527f73206e6f74206f776e00000000000000000000000000000000000000000000006020830152604082019050919050565b60006134c7602f83613c9d565b91507f4552433732314d657461646174613a2055524920717565727920666f72206e6f60008301527f6e6578697374656e7420746f6b656e00000000000000000000000000000000006020830152604082019050919050565b600061352d602183613c9d565b91507f4552433732313a20617070726f76616c20746f2063757272656e74206f776e6560008301527f72000000000000000000000000000000000000000000000000000000000000006020830152604082019050919050565b6000613593601783613c9d565b91507f4e6f7420616c6c6f77656420746f207472616e736665720000000000000000006000830152602082019050919050565b60006135d3602583613c9d565b91507f4f6e6c7920636f6e7472616374206f776e65722063616e20757064617465206160008301527f646d696e730000000000000000000000000000000000000000000000000000006020830152604082019050919050565b6000613639603183613c9d565b91507f4552433732313a207472616e736665722063616c6c6572206973206e6f74206f60008301527f776e6572206e6f7220617070726f7665640000000000000000000000000000006020830152604082019050919050565b600061369f602a83613c9d565b91507f4275696c6473706163653a2061646472657373206e6f7420656c696769626c6560008301527f20666f7220636c61696d000000000000000000000000000000000000000000006020830152604082019050919050565b6000613705600183613cae565b91507f2d000000000000000000000000000000000000000000000000000000000000006000830152600182019050919050565b61374181613de8565b82525050565b60006137538284612dd2565b60148201915081905092915050565b600061376e8285612df8565b60208201915061377e8284612df8565b6020820191508190509392505050565b600061379a8284612e81565b915081905092915050565b60006137b18285612e81565b91506137bd8284612e81565b91508190509392505050565b60006137d58285612e81565b91506137e0826136f8565b91506137ec8284612e81565b91506137f782612f58565b91508190509392505050565b60006020820190506138186000830184612dc3565b92915050565b60006080820190506138336000830187612dc3565b6138406020830186612dc3565b61384d6040830185613738565b818103606083015261385f8184612e0f565b905095945050505050565b600060208201905061387f6000830184612de9565b92915050565b6000602082019050818103600083015261389f8184612e48565b905092915050565b600060208201905081810360008301526138c081612eb2565b9050919050565b600060208201905081810360008301526138e081612f18565b9050919050565b6000602082019050818103600083015261390081612f98565b9050919050565b6000602082019050818103600083015261392081612ffe565b9050919050565b600060208201905081810360008301526139408161303e565b9050919050565b60006020820190508181036000830152613960816130a4565b9050919050565b60006020820190508181036000830152613980816130e4565b9050919050565b600060208201905081810360008301526139a08161314a565b9050919050565b600060208201905081810360008301526139c0816131b0565b9050919050565b600060208201905081810360008301526139e081613216565b9050919050565b60006020820190508181036000830152613a008161327c565b9050919050565b60006020820190508181036000830152613a20816132e2565b9050919050565b60006020820190508181036000830152613a4081613348565b9050919050565b60006020820190508181036000830152613a6081613388565b9050919050565b60006020820190508181036000830152613a80816133ee565b9050919050565b60006020820190508181036000830152613aa081613454565b9050919050565b60006020820190508181036000830152613ac0816134ba565b9050919050565b60006020820190508181036000830152613ae081613520565b9050919050565b60006020820190508181036000830152613b0081613586565b9050919050565b60006020820190508181036000830152613b20816135c6565b9050919050565b60006020820190508181036000830152613b408161362c565b9050919050565b60006020820190508181036000830152613b6081613692565b9050919050565b6000602082019050613b7c6000830184613738565b92915050565b6000606082019050613b976000830186613738565b613ba46020830185613738565b613bb16040830184612de9565b949350505050565b6000604051905081810181811067ffffffffffffffff82111715613be057613bdf613fc5565b5b8060405250919050565b600067ffffffffffffffff821115613c0557613c04613fc5565b5b602082029050602081019050919050565b600067ffffffffffffffff821115613c3157613c30613fc5565b5b601f19601f8301169050602081019050919050565b600067ffffffffffffffff821115613c6157613c60613fc5565b5b601f19601f8301169050602081019050919050565b600081519050919050565b600081519050919050565b600082825260208201905092915050565b600082825260208201905092915050565b600081905092915050565b6000613cc482613de8565b9150613ccf83613de8565b9250827fffffffffffffffffffffffffffffffffffffffffffffffffffffffffffffffff03821115613d0457613d03613f38565b5b828201905092915050565b6000613d1a82613de8565b9150613d2583613de8565b925082613d3557613d34613f67565b5b828204905092915050565b6000613d4b82613de8565b9150613d5683613de8565b925082821015613d6957613d68613f38565b5b828203905092915050565b6000613d7f82613dc8565b9050919050565b60008115159050919050565b6000819050919050565b60007fffffffff0000000000000000000000000000000000000000000000000000000082169050919050565b600073ffffffffffffffffffffffffffffffffffffffff82169050919050565b6000819050919050565b82818337600083830152505050565b60005b83811015613e1f578082015181840152602081019050613e04565b83811115613e2e576000848401525b50505050565b6000613e3f82613de8565b91506000821415613e5357613e52613f38565b5b600182039050919050565b60006002820490506001821680613e7657607f821691505b60208210811415613e8a57613e89613f96565b5b50919050565b6000613e9b82613de8565b91507fffffffffffffffffffffffffffffffffffffffffffffffffffffffffffffffff821415613ece57613ecd613f38565b5b600182019050919050565b6000613ee482613ef5565b9050919050565b6000819050919050565b6000613f0082614005565b9050919050565b6000613f1282613de8565b9150613f1d83613de8565b925082613f2d57613f2c613f67565b5b828206905092915050565b7f4e487b7100000000000000000000000000000000000000000000000000000000600052601160045260246000fd5b7f4e487b7100000000000000000000000000000000000000000000000000000000600052601260045260246000fd5b7f4e487b7100000000000000000000000000000000000000000000000000000000600052602260045260246000fd5b7f4e487b7100000000000000000000000000000000000000000000000000000000600052604160045260246000fd5b6000601f19601f8301169050919050565b60008160601b9050919050565b61401b81613d74565b811461402657600080fd5b50565b61403281613d86565b811461403d57600080fd5b50565b61404981613d92565b811461405457600080fd5b50565b61406081613d9c565b811461406b57600080fd5b50565b61407781613de8565b811461408257600080fd5b5056fea2646970667358221220f222ca3559ff10c9382b47c922cb18788acc870db6abd35b0d4afbf976ca361764736f6c63430008000033",
  "linkReferences": {},
  "deployedLinkReferences": {}
}